{
  "_format": "hh-sol-artifact-1",
  "contractName": "UserDetails",
  "sourceName": "contracts/UserDetails.sol",
  "abi": [
    {
      "inputs": [
        {
          "internalType": "address",
          "name": "_userAddress",
          "type": "address"
        },
        {
          "internalType": "address",
          "name": "_driverAddress",
          "type": "address"
        }
      ],
      "name": "acceptRide",
      "outputs": [],
      "stateMutability": "nonpayable",
      "type": "function"
    },
    {
      "inputs": [
        {
          "internalType": "address",
          "name": "_driverAddress",
          "type": "address"
        },
        {
          "internalType": "string",
          "name": "_pickup",
          "type": "string"
        },
        {
          "internalType": "string",
          "name": "_dropoff",
          "type": "string"
        },
        {
          "internalType": "string",
          "name": "_amount",
          "type": "string"
        }
      ],
      "name": "addData",
      "outputs": [],
      "stateMutability": "nonpayable",
      "type": "function"
    },
    {
      "inputs": [],
      "name": "deleteDriverLocation",
      "outputs": [],
      "stateMutability": "nonpayable",
      "type": "function"
    },
    {
      "inputs": [],
      "name": "displayRideHistory",
      "outputs": [
        {
          "components": [
            {
              "internalType": "address",
              "name": "userAddress",
              "type": "address"
            },
            {
              "internalType": "address",
              "name": "driverAddress",
              "type": "address"
            },
            {
              "internalType": "string",
              "name": "pickup",
              "type": "string"
            },
            {
              "internalType": "string",
              "name": "dropoff",
              "type": "string"
            },
            {
              "internalType": "string",
              "name": "amount",
              "type": "string"
            },
            {
              "internalType": "uint256",
              "name": "date",
              "type": "uint256"
            }
          ],
          "internalType": "struct UserDetails.rideHistory[]",
          "name": "",
          "type": "tuple[]"
        }
      ],
      "stateMutability": "view",
      "type": "function"
    },
    {
      "inputs": [],
      "name": "getAllDriverDetails",
      "outputs": [
        {
          "internalType": "address[]",
          "name": "",
          "type": "address[]"
        },
        {
          "internalType": "string[]",
          "name": "",
          "type": "string[]"
        },
        {
          "internalType": "string[]",
          "name": "",
          "type": "string[]"
        }
      ],
      "stateMutability": "view",
      "type": "function"
    },
    {
      "inputs": [],
      "name": "getData",
      "outputs": [
        {
          "components": [
            {
              "internalType": "address",
              "name": "userAddress",
              "type": "address"
            },
            {
              "internalType": "address",
              "name": "driverAddress",
              "type": "address"
            },
            {
              "internalType": "string",
              "name": "pickup",
              "type": "string"
            },
            {
              "internalType": "string",
              "name": "dropoff",
              "type": "string"
            },
            {
              "internalType": "bool",
              "name": "accept",
              "type": "bool"
            },
            {
              "internalType": "bool",
              "name": "reject",
              "type": "bool"
            },
            {
              "internalType": "string",
              "name": "amount",
              "type": "string"
            }
          ],
          "internalType": "struct UserDetails.RideSelect[]",
          "name": "",
          "type": "tuple[]"
        }
      ],
      "stateMutability": "view",
      "type": "function"
    },
    {
      "inputs": [
        {
          "internalType": "address",
          "name": "_driverAddress",
          "type": "address"
        },
        {
          "internalType": "address",
          "name": "_userAddress",
          "type": "address"
        },
        {
          "internalType": "uint256",
          "name": "_driverRating",
          "type": "uint256"
        }
      ],
      "name": "payDriver",
      "outputs": [],
      "stateMutability": "payable",
      "type": "function"
    },
    {
      "inputs": [
        {
          "internalType": "address",
          "name": "_userAddress",
          "type": "address"
        },
        {
          "internalType": "address",
          "name": "_driverAddress",
          "type": "address"
        }
      ],
      "name": "rejectRide",
      "outputs": [],
      "stateMutability": "nonpayable",
      "type": "function"
    },
    {
      "inputs": [],
      "name": "removeData",
      "outputs": [],
      "stateMutability": "nonpayable",
      "type": "function"
    },
    {
      "inputs": [],
      "name": "retrieveDriverInformation",
      "outputs": [
        {
          "internalType": "string",
          "name": "",
          "type": "string"
        },
        {
          "internalType": "string",
          "name": "",
          "type": "string"
        },
        {
          "internalType": "string",
          "name": "",
          "type": "string"
        },
        {
          "internalType": "string",
          "name": "",
          "type": "string"
        },
        {
          "internalType": "string",
          "name": "",
          "type": "string"
        },
        {
          "internalType": "string",
          "name": "",
          "type": "string"
        },
        {
          "internalType": "string",
          "name": "",
          "type": "string"
        },
        {
          "internalType": "string",
          "name": "",
          "type": "string"
        },
        {
          "internalType": "string",
          "name": "",
          "type": "string"
        },
        {
          "internalType": "uint256",
          "name": "",
          "type": "uint256"
        }
      ],
      "stateMutability": "view",
      "type": "function"
    },
    {
      "inputs": [
        {
          "internalType": "address",
          "name": "driverAddress",
          "type": "address"
        }
      ],
      "name": "retrieveSpecificDriver",
      "outputs": [
        {
          "internalType": "string",
          "name": "",
          "type": "string"
        },
        {
          "internalType": "string",
          "name": "",
          "type": "string"
        },
        {
          "internalType": "string",
          "name": "",
          "type": "string"
        },
        {
          "internalType": "string",
          "name": "",
          "type": "string"
        },
        {
          "internalType": "string",
          "name": "",
          "type": "string"
        },
        {
          "internalType": "string",
          "name": "",
          "type": "string"
        },
        {
          "internalType": "string",
          "name": "",
          "type": "string"
        },
        {
          "internalType": "string",
          "name": "",
          "type": "string"
        },
        {
          "internalType": "string",
          "name": "",
          "type": "string"
        },
        {
          "internalType": "uint256",
          "name": "",
          "type": "uint256"
        }
      ],
      "stateMutability": "view",
      "type": "function"
    },
    {
      "inputs": [],
      "name": "retrieveUserInformation",
      "outputs": [
        {
          "internalType": "string",
          "name": "",
          "type": "string"
        },
        {
          "internalType": "string",
          "name": "",
          "type": "string"
        },
        {
          "internalType": "string",
          "name": "",
          "type": "string"
        },
        {
          "internalType": "uint256",
          "name": "",
          "type": "uint256"
        }
      ],
      "stateMutability": "view",
      "type": "function"
    },
    {
      "inputs": [
        {
          "internalType": "string",
          "name": "_name",
          "type": "string"
        },
        {
          "internalType": "string",
          "name": "_phoneNumber",
          "type": "string"
        },
        {
          "internalType": "string",
          "name": "_model",
          "type": "string"
        },
        {
          "internalType": "string",
          "name": "_vehicleNumber",
          "type": "string"
        },
        {
          "internalType": "string",
          "name": "_rcBook",
          "type": "string"
        },
        {
          "internalType": "string",
          "name": "_license",
          "type": "string"
        },
        {
          "internalType": "string",
          "name": "_vehicleName",
          "type": "string"
        },
        {
          "internalType": "string",
          "name": "_aadhar",
          "type": "string"
        }
      ],
      "name": "setDriverInformation",
      "outputs": [],
      "stateMutability": "nonpayable",
      "type": "function"
    },
    {
      "inputs": [
        {
          "internalType": "string",
          "name": "_location",
          "type": "string"
        }
      ],
      "name": "setDriverLocation",
      "outputs": [],
      "stateMutability": "nonpayable",
      "type": "function"
    },
    {
      "inputs": [
        {
          "internalType": "string",
          "name": "_name",
          "type": "string"
        },
        {
          "internalType": "string",
          "name": "_phoneNumber",
          "type": "string"
        },
        {
          "internalType": "string",
          "name": "_aadhar",
          "type": "string"
        }
      ],
      "name": "setUserInformation",
      "outputs": [],
      "stateMutability": "nonpayable",
      "type": "function"
    },
    {
      "inputs": [
        {
          "internalType": "address",
          "name": "userAddress",
          "type": "address"
        },
        {
          "internalType": "uint256",
          "name": "rating",
          "type": "uint256"
        }
      ],
      "name": "updateUserRating",
      "outputs": [],
      "stateMutability": "nonpayable",
      "type": "function"
    }
  ],
  "bytecode": "0x608060405234801561001057600080fd5b506133a3806100206000396000f3fe6080604052600436106100f35760003560e01c8063780200901161008a578063d0927e9311610059578063d0927e9314610271578063e0e6a69114610291578063e232ee2e146102b6578063ff08b57c146102d657600080fd5b806378020090146101f15780639181b12814610211578063923f94cd14610231578063b88332541461025157600080fd5b80633d784d1b116100c65780633d784d1b1461017a57806340976d741461019a578063536f4a04146101ad578063612b5d30146101d157600080fd5b80630ca11da8146100f85780631066b7821461010f5780631be9d1ec146101435780633bc5de3014610158575b600080fd5b34801561010457600080fd5b5061010d6102f8565b005b34801561011b57600080fd5b50610124610452565b60405161013a9a999897969594939291906128fe565b60405180910390f35b34801561014f57600080fd5b5061010d610a17565b34801561016457600080fd5b5061016d610bfa565b60405161013a91906129cc565b34801561018657600080fd5b5061010d610195366004612ace565b610e55565b61010d6101a8366004612b01565b611098565b3480156101b957600080fd5b506101c26116a8565b60405161013a93929190612b92565b3480156101dd57600080fd5b506101246101ec366004612c07565b61199b565b3480156101fd57600080fd5b5061010d61020c366004612ace565b611f61565b34801561021d57600080fd5b5061010d61022c366004612c29565b612042565b34801561023d57600080fd5b5061010d61024c366004612cf6565b612080565b34801561025d57600080fd5b5061010d61026c366004612d33565b612149565b34801561027d57600080fd5b5061010d61028c366004612dcc565b6122a1565b34801561029d57600080fd5b506102a66123a8565b60405161013a9493929190612f0c565b3480156102c257600080fd5b5061010d6102d1366004612f57565b6125c1565b3480156102e257600080fd5b506102eb612631565b60405161013a9190612fdf565b3360009081526001602052604081206002018054610315906130a1565b905011156103495760408051602080820183526000808352338152600190915291909120600201906103479082613129565b505b60005b60025481101561044f57336001600160a01b031660028281548110610373576103736131e9565b6000918252602090912001546001600160a01b03160361043d576002805461039d90600190613215565b815481106103ad576103ad6131e9565b600091825260209091200154600280546001600160a01b0390921691839081106103d9576103d96131e9565b9060005260206000200160006101000a8154816001600160a01b0302191690836001600160a01b0316021790555060028054806104185761041861322e565b600082815260209020810160001990810180546001600160a01b031916905501905550565b8061044781613244565b91505061034c565b50565b606080606080606080606080606060008060016000336001600160a01b03166001600160a01b03168152602001908152602001600020604051806101400160405290816000820180546104a4906130a1565b80601f01602080910402602001604051908101604052809291908181526020018280546104d0906130a1565b801561051d5780601f106104f25761010080835404028352916020019161051d565b820191906000526020600020905b81548152906001019060200180831161050057829003601f168201915b50505050508152602001600182018054610536906130a1565b80601f0160208091040260200160405190810160405280929190818152602001828054610562906130a1565b80156105af5780601f10610584576101008083540402835291602001916105af565b820191906000526020600020905b81548152906001019060200180831161059257829003601f168201915b505050505081526020016002820180546105c8906130a1565b80601f01602080910402602001604051908101604052809291908181526020018280546105f4906130a1565b80156106415780601f1061061657610100808354040283529160200191610641565b820191906000526020600020905b81548152906001019060200180831161062457829003601f168201915b5050505050815260200160038201805461065a906130a1565b80601f0160208091040260200160405190810160405280929190818152602001828054610686906130a1565b80156106d35780601f106106a8576101008083540402835291602001916106d3565b820191906000526020600020905b8154815290600101906020018083116106b657829003601f168201915b505050505081526020016004820180546106ec906130a1565b80601f0160208091040260200160405190810160405280929190818152602001828054610718906130a1565b80156107655780601f1061073a57610100808354040283529160200191610765565b820191906000526020600020905b81548152906001019060200180831161074857829003601f168201915b5050505050815260200160058201805461077e906130a1565b80601f01602080910402602001604051908101604052809291908181526020018280546107aa906130a1565b80156107f75780601f106107cc576101008083540402835291602001916107f7565b820191906000526020600020905b8154815290600101906020018083116107da57829003601f168201915b50505050508152602001600682018054610810906130a1565b80601f016020809104026020016040519081016040528092919081815260200182805461083c906130a1565b80156108895780601f1061085e57610100808354040283529160200191610889565b820191906000526020600020905b81548152906001019060200180831161086c57829003601f168201915b505050505081526020016007820180546108a2906130a1565b80601f01602080910402602001604051908101604052809291908181526020018280546108ce906130a1565b801561091b5780601f106108f05761010080835404028352916020019161091b565b820191906000526020600020905b8154815290600101906020018083116108fe57829003601f168201915b50505050508152602001600882018054610934906130a1565b80601f0160208091040260200160405190810160405280929190818152602001828054610960906130a1565b80156109ad5780601f10610982576101008083540402835291602001916109ad565b820191906000526020600020905b81548152906001019060200180831161099057829003601f168201915b505050505081526020016009820154815250509050806000015181602001518260400151836060015184608001518560a001518660c001518760e001518861010001518961012001519a509a509a509a509a509a509a509a509a509a505090919293949596979899565b3360005b600454811015610bf657816001600160a01b031660048281548110610a4257610a426131e9565b60009182526020909120600690910201546001600160a01b031603610be45760048054610a7190600190613215565b81548110610a8157610a816131e9565b906000526020600020906006020160048281548110610aa257610aa26131e9565b60009182526020909120825460069092020180546001600160a01b039283166001600160a01b0319918216178255600180850154908301805491909416911617909155600280820190610af79084018261325d565b50600381810190610b0a9084018261325d565b5060048281018054918301805460ff938416151560ff19821681178355925461010090819004909416151590930261ff001990921661ffff1990931692909217179055600580820190610b5f9084018261325d565b509050506004805480610b7457610b7461322e565b60008281526020812060066000199093019283020180546001600160a01b03199081168255600182018054909116905590610bb2600283018261286a565b610bc060038301600061286a565b60048201805461ffff19169055610bdb60058301600061286a565b50509055610a1b565b80610bee81613244565b915050610a1b565b5050565b60606004805480602002602001604051908101604052809291908181526020016000905b82821015610e4c5760008481526020908190206040805160e0810182526006860290920180546001600160a01b0390811684526001820154169383019390935260028301805492939291840191610c74906130a1565b80601f0160208091040260200160405190810160405280929190818152602001828054610ca0906130a1565b8015610ced5780601f10610cc257610100808354040283529160200191610ced565b820191906000526020600020905b815481529060010190602001808311610cd057829003601f168201915b50505050508152602001600382018054610d06906130a1565b80601f0160208091040260200160405190810160405280929190818152602001828054610d32906130a1565b8015610d7f5780601f10610d5457610100808354040283529160200191610d7f565b820191906000526020600020905b815481529060010190602001808311610d6257829003601f168201915b5050509183525050600482015460ff808216151560208401526101009091041615156040820152600582018054606090920191610dbb906130a1565b80601f0160208091040260200160405190810160405280929190818152602001828054610de7906130a1565b8015610e345780601f10610e0957610100808354040283529160200191610e34565b820191906000526020600020905b815481529060010190602001808311610e1757829003601f168201915b50505050508152505081526020019060010190610c1e565b50505050905090565b6001600160a01b03811660009081526001602052604081206002018054610e7b906130a1565b90501115610eaf576040805160208082018352600080835233815260019091529190912060020190610ead9082613129565b505b60005b600254811015610fb757816001600160a01b031660028281548110610ed957610ed96131e9565b6000918252602090912001546001600160a01b031603610fa55760028054610f0390600190613215565b81548110610f1357610f136131e9565b600091825260209091200154600280546001600160a01b039092169183908110610f3f57610f3f6131e9565b9060005260206000200160006101000a8154816001600160a01b0302191690836001600160a01b031602179055506002805480610f7e57610f7e61322e565b600082815260209020810160001990810180546001600160a01b0319169055019055610fb7565b80610faf81613244565b915050610eb2565b5060005b60045481101561109357826001600160a01b031660048281548110610fe257610fe26131e9565b60009182526020909120600690910201546001600160a01b03161480156110405750816001600160a01b031660048281548110611021576110216131e9565b60009182526020909120600160069092020101546001600160a01b0316145b156110815760016004828154811061105a5761105a6131e9565b60009182526020909120600690910201600401805460ff1916911515919091179055505050565b8061108b81613244565b915050610fbb565b505050565b60005b60045481101561162357826001600160a01b0316600482815481106110c2576110c26131e9565b60009182526020909120600690910201546001600160a01b03161480156111205750836001600160a01b031660048281548110611101576111016131e9565b60009182526020909120600160069092020101546001600160a01b0316145b801561115757506004818154811061113a5761113a6131e9565b600091825260209091206004600690920201015460ff1615156001145b156116115760036040518060c001604052806004848154811061117c5761117c6131e9565b6000918252602091829020600690910201546001600160a01b03168252600480549290910191859081106111b2576111b26131e9565b6000918252602091829020600160069092020101546001600160a01b03168252600480549290910191859081106111eb576111eb6131e9565b90600052602060002090600602016002018054611207906130a1565b80601f0160208091040260200160405190810160405280929190818152602001828054611233906130a1565b80156112805780601f1061125557610100808354040283529160200191611280565b820191906000526020600020905b81548152906001019060200180831161126357829003601f168201915b505050505081526020016004848154811061129d5761129d6131e9565b906000526020600020906006020160030180546112b9906130a1565b80601f01602080910402602001604051908101604052809291908181526020018280546112e5906130a1565b80156113325780601f1061130757610100808354040283529160200191611332565b820191906000526020600020905b81548152906001019060200180831161131557829003601f168201915b505050505081526020016004848154811061134f5761134f6131e9565b9060005260206000209060060201600501805461136b906130a1565b80601f0160208091040260200160405190810160405280929190818152602001828054611397906130a1565b80156113e45780601f106113b9576101008083540402835291602001916113e4565b820191906000526020600020905b8154815290600101906020018083116113c757829003601f168201915b505050918352505042602091820152825460018082018555600094855293829020835160069092020180546001600160a01b03199081166001600160a01b0393841617825592840151948101805490931694909116939093179055604081015190919060028201906114569082613129565b506060820151600382019061146b9082613129565b50608082015160048201906114809082613129565b5060a091909101516005909101556004805461149e90600190613215565b815481106114ae576114ae6131e9565b9060005260206000209060060201600482815481106114cf576114cf6131e9565b60009182526020909120825460069092020180546001600160a01b039283166001600160a01b03199182161782556001808501549083018054919094169116179091556002808201906115249084018261325d565b506003818101906115379084018261325d565b5060048281018054918301805460ff938416151560ff19821681178355925461010090819004909416151590930261ff001990921661ffff199093169290921717905560058082019061158c9084018261325d565b5090505060048054806115a1576115a161322e565b60008281526020812060066000199093019283020180546001600160a01b031990811682556001820180549091169055906115df600283018261286a565b6115ed60038301600061286a565b60048201805461ffff1916905561160860058301600061286a565b50509055611623565b8061161b81613244565b91505061109b565b506001600160a01b03831660009081526001602052604090206009015460029061164d9083613338565b611657919061334b565b6001600160a01b03841660008181526001602052604080822060090193909355915190913480156108fc02929091818181858888f193505050501580156116a2573d6000803e3d6000fd5b50505050565b6060806060600060028054905067ffffffffffffffff8111156116cd576116cd612c53565b60405190808252806020026020018201604052801561170057816020015b60608152602001906001900390816116eb5790505b5060025490915060009067ffffffffffffffff81111561172257611722612c53565b60405190808252806020026020018201604052801561175557816020015b60608152602001906001900390816117405790505b50905060005b60025481101561192d5760006002828154811061177a5761177a6131e9565b60009182526020808320909101546001600160a01b0316808352600190915260409091206002018054919250906117b0906130a1565b80601f01602080910402602001604051908101604052809291908181526020018280546117dc906130a1565b80156118295780601f106117fe57610100808354040283529160200191611829565b820191906000526020600020905b81548152906001019060200180831161180c57829003601f168201915b5050505050848381518110611840576118406131e9565b602002602001018190525060016000826001600160a01b03166001600160a01b03168152602001908152602001600020600301805461187e906130a1565b80601f01602080910402602001604051908101604052809291908181526020018280546118aa906130a1565b80156118f75780601f106118cc576101008083540402835291602001916118f7565b820191906000526020600020905b8154815290600101906020018083116118da57829003601f168201915b505050505083838151811061190e5761190e6131e9565b602002602001018190525050808061192590613244565b91505061175b565b50600282828280548060200260200160405190810160405280929190818152602001828054801561198757602002820191906000526020600020905b81546001600160a01b03168152600190910190602001808311611969575b505050505092509450945094505050909192565b6060806060806060806060806060600080600160008d6001600160a01b03166001600160a01b03168152602001908152602001600020604051806101400160405290816000820180546119ed906130a1565b80601f0160208091040260200160405190810160405280929190818152602001828054611a19906130a1565b8015611a665780601f10611a3b57610100808354040283529160200191611a66565b820191906000526020600020905b815481529060010190602001808311611a4957829003601f168201915b50505050508152602001600182018054611a7f906130a1565b80601f0160208091040260200160405190810160405280929190818152602001828054611aab906130a1565b8015611af85780601f10611acd57610100808354040283529160200191611af8565b820191906000526020600020905b815481529060010190602001808311611adb57829003601f168201915b50505050508152602001600282018054611b11906130a1565b80601f0160208091040260200160405190810160405280929190818152602001828054611b3d906130a1565b8015611b8a5780601f10611b5f57610100808354040283529160200191611b8a565b820191906000526020600020905b815481529060010190602001808311611b6d57829003601f168201915b50505050508152602001600382018054611ba3906130a1565b80601f0160208091040260200160405190810160405280929190818152602001828054611bcf906130a1565b8015611c1c5780601f10611bf157610100808354040283529160200191611c1c565b820191906000526020600020905b815481529060010190602001808311611bff57829003601f168201915b50505050508152602001600482018054611c35906130a1565b80601f0160208091040260200160405190810160405280929190818152602001828054611c61906130a1565b8015611cae5780601f10611c8357610100808354040283529160200191611cae565b820191906000526020600020905b815481529060010190602001808311611c9157829003601f168201915b50505050508152602001600582018054611cc7906130a1565b80601f0160208091040260200160405190810160405280929190818152602001828054611cf3906130a1565b8015611d405780601f10611d1557610100808354040283529160200191611d40565b820191906000526020600020905b815481529060010190602001808311611d2357829003601f168201915b50505050508152602001600682018054611d59906130a1565b80601f0160208091040260200160405190810160405280929190818152602001828054611d85906130a1565b8015611dd25780601f10611da757610100808354040283529160200191611dd2565b820191906000526020600020905b815481529060010190602001808311611db557829003601f168201915b50505050508152602001600782018054611deb906130a1565b80601f0160208091040260200160405190810160405280929190818152602001828054611e17906130a1565b8015611e645780601f10611e3957610100808354040283529160200191611e64565b820191906000526020600020905b815481529060010190602001808311611e4757829003601f168201915b50505050508152602001600882018054611e7d906130a1565b80601f0160208091040260200160405190810160405280929190818152602001828054611ea9906130a1565b8015611ef65780601f10611ecb57610100808354040283529160200191611ef6565b820191906000526020600020905b815481529060010190602001808311611ed957829003601f168201915b505050505081526020016009820154815250509050806000015181602001518260400151836060015184608001518560a001518660c001518760e001518861010001518961012001519a509a509a509a509a509a509a509a509a509a50509193959799509193959799565b60005b60045481101561109357826001600160a01b031660048281548110611f8b57611f8b6131e9565b60009182526020909120600690910201546001600160a01b0316148015611fe95750816001600160a01b031660048281548110611fca57611fca6131e9565b60009182526020909120600160069092020101546001600160a01b0316145b1561203057600160048281548110612003576120036131e9565b906000526020600020906006020160040160016101000a81548160ff021916908315150217905550505050565b8061203a81613244565b915050611f64565b6001600160a01b0382166000908152602081905260409020600381015460029061206c9084613338565b612076919061334b565b6003909101555050565b33600090815260016020526040902060020161209c8282613129565b506000805b6002548110156120fd57336001600160a01b0316600282815481106120c8576120c86131e9565b6000918252602090912001546001600160a01b0316036120eb57600191506120fd565b806120f581613244565b9150506120a1565b5080610bf657600280546001810182556000919091527f405787fa12a823e0f2b7631cc41b3ba8828b3321ca811111fa75cd3aa3bb5ace0180546001600160a01b031916331790555050565b6040805160e0810182523381526001600160a01b03868116602083019081529282018681526060830186905260006080840181905260a0840181905260c08401869052600480546001810182559152835160069091027f8a35acfbc15ff81a39ae7d344fd709f28e8600b4aa8c65c6b64bfe7fe36bd19b810180549285166001600160a01b031993841617815595517f8a35acfbc15ff81a39ae7d344fd709f28e8600b4aa8c65c6b64bfe7fe36bd19c8201805491909516921691909117909255519192839290917f8a35acfbc15ff81a39ae7d344fd709f28e8600b4aa8c65c6b64bfe7fe36bd19d019061223e9082613129565b50606082015160038201906122539082613129565b50608082015160048201805460a085015115156101000261ff00199315159390931661ffff199091161791909117905560c082015160058201906122979082613129565b5050505050505050565b3360009081526001602052604090206122ba8982613129565b50336000908152600160208190526040909120016122d88882613129565b503360009081526001602052604090206003016122f58782613129565b503360009081526001602052604090206004016123128682613129565b5033600090815260016020526040902060050161232f8582613129565b5033600090815260016020526040902060060161234c8482613129565b503360009081526001602052604090206007016123698382613129565b503360009081526001602052604090206008016123868282613129565b5050336000908152600160205260409020600560099091015550505050505050565b6060806060600080600080336001600160a01b03166001600160a01b031681526020019081526020016000206040518060800160405290816000820180546123ef906130a1565b80601f016020809104026020016040519081016040528092919081815260200182805461241b906130a1565b80156124685780601f1061243d57610100808354040283529160200191612468565b820191906000526020600020905b81548152906001019060200180831161244b57829003601f168201915b50505050508152602001600182018054612481906130a1565b80601f01602080910402602001604051908101604052809291908181526020018280546124ad906130a1565b80156124fa5780601f106124cf576101008083540402835291602001916124fa565b820191906000526020600020905b8154815290600101906020018083116124dd57829003601f168201915b50505050508152602001600282018054612513906130a1565b80601f016020809104026020016040519081016040528092919081815260200182805461253f906130a1565b801561258c5780601f106125615761010080835404028352916020019161258c565b820191906000526020600020905b81548152906001019060200180831161256f57829003601f168201915b505050918352505060039190910154602091820152815190820151604083015160609093015191989097509195509350915050565b3360009081526020819052604090206125da8482613129565b503360009081526020819052604090206001016125f78382613129565b503360009081526020819052604090206002016126148282613129565b505033600090815260208190526040902060056003909101555050565b60606003805480602002602001604051908101604052809291908181526020016000905b82821015610e4c5760008481526020908190206040805160c0810182526006860290920180546001600160a01b03908116845260018201541693830193909352600283018054929392918401916126ab906130a1565b80601f01602080910402602001604051908101604052809291908181526020018280546126d7906130a1565b80156127245780601f106126f957610100808354040283529160200191612724565b820191906000526020600020905b81548152906001019060200180831161270757829003601f168201915b5050505050815260200160038201805461273d906130a1565b80601f0160208091040260200160405190810160405280929190818152602001828054612769906130a1565b80156127b65780601f1061278b576101008083540402835291602001916127b6565b820191906000526020600020905b81548152906001019060200180831161279957829003601f168201915b505050505081526020016004820180546127cf906130a1565b80601f01602080910402602001604051908101604052809291908181526020018280546127fb906130a1565b80156128485780601f1061281d57610100808354040283529160200191612848565b820191906000526020600020905b81548152906001019060200180831161282b57829003601f168201915b5050505050815260200160058201548152505081526020019060010190612655565b508054612876906130a1565b6000825580601f10612886575050565b601f01602090049060005260206000209081019061044f91905b808211156128b457600081556001016128a0565b5090565b6000815180845260005b818110156128de576020818501810151868301820152016128c2565b506000602082860101526020601f19601f83011685010191505092915050565b60006101408083526129128184018e6128b8565b90508281036020840152612926818d6128b8565b9050828103604084015261293a818c6128b8565b9050828103606084015261294e818b6128b8565b90508281036080840152612962818a6128b8565b905082810360a084015261297681896128b8565b905082810360c084015261298a81886128b8565b905082810360e084015261299e81876128b8565b90508281036101008401526129b381866128b8565b915050826101208301529b9a5050505050505050505050565b60006020808301818452808551808352604092508286019150828160051b87010184880160005b83811015612aa457888303603f19018552815180516001600160a01b0390811685528882015116888501528681015160e088860181905290612a37828701826128b8565b91505060608083015186830382880152612a5183826128b8565b92505050608080830151612a688288018215159052565b505060a08281015115159086015260c09182015185820392860192909252612a9081836128b8565b9689019694505050908601906001016129f3565b509098975050505050505050565b80356001600160a01b0381168114612ac957600080fd5b919050565b60008060408385031215612ae157600080fd5b612aea83612ab2565b9150612af860208401612ab2565b90509250929050565b600080600060608486031215612b1657600080fd5b612b1f84612ab2565b9250612b2d60208501612ab2565b9150604084013590509250925092565b600081518084526020808501808196508360051b8101915082860160005b85811015612b85578284038952612b738483516128b8565b98850198935090840190600101612b5b565b5091979650505050505050565b606080825284519082018190526000906020906080840190828801845b82811015612bd45781516001600160a01b031684529284019290840190600101612baf565b50505083810382850152612be88187612b3d565b9150508281036040840152612bfd8185612b3d565b9695505050505050565b600060208284031215612c1957600080fd5b612c2282612ab2565b9392505050565b60008060408385031215612c3c57600080fd5b612c4583612ab2565b946020939093013593505050565b634e487b7160e01b600052604160045260246000fd5b600082601f830112612c7a57600080fd5b813567ffffffffffffffff80821115612c9557612c95612c53565b604051601f8301601f19908116603f01168101908282118183101715612cbd57612cbd612c53565b81604052838152866020858801011115612cd657600080fd5b836020870160208301376000602085830101528094505050505092915050565b600060208284031215612d0857600080fd5b813567ffffffffffffffff811115612d1f57600080fd5b612d2b84828501612c69565b949350505050565b60008060008060808587031215612d4957600080fd5b612d5285612ab2565b9350602085013567ffffffffffffffff80821115612d6f57600080fd5b612d7b88838901612c69565b94506040870135915080821115612d9157600080fd5b612d9d88838901612c69565b93506060870135915080821115612db357600080fd5b50612dc087828801612c69565b91505092959194509250565b600080600080600080600080610100898b031215612de957600080fd5b883567ffffffffffffffff80821115612e0157600080fd5b612e0d8c838d01612c69565b995060208b0135915080821115612e2357600080fd5b612e2f8c838d01612c69565b985060408b0135915080821115612e4557600080fd5b612e518c838d01612c69565b975060608b0135915080821115612e6757600080fd5b612e738c838d01612c69565b965060808b0135915080821115612e8957600080fd5b612e958c838d01612c69565b955060a08b0135915080821115612eab57600080fd5b612eb78c838d01612c69565b945060c08b0135915080821115612ecd57600080fd5b612ed98c838d01612c69565b935060e08b0135915080821115612eef57600080fd5b50612efc8b828c01612c69565b9150509295985092959890939650565b608081526000612f1f60808301876128b8565b8281036020840152612f3181876128b8565b90508281036040840152612f4581866128b8565b91505082606083015295945050505050565b600080600060608486031215612f6c57600080fd5b833567ffffffffffffffff80821115612f8457600080fd5b612f9087838801612c69565b94506020860135915080821115612fa657600080fd5b612fb287838801612c69565b93506040860135915080821115612fc857600080fd5b50612fd586828701612c69565b9150509250925092565b60006020808301818452808551808352604092508286019150828160051b87010184880160005b83811015612aa457888303603f19018552815180516001600160a01b0390811685528882015116888501528681015160c08886018190529061304a828701826128b8565b9150506060808301518683038288015261306483826128b8565b925050506080808301518683038288015261307f83826128b8565b60a0948501519790940196909652505094870194925090860190600101613006565b600181811c908216806130b557607f821691505b6020821081036130d557634e487b7160e01b600052602260045260246000fd5b50919050565b601f82111561109357600081815260208120601f850160051c810160208610156131025750805b601f850160051c820191505b818110156131215782815560010161310e565b505050505050565b815167ffffffffffffffff81111561314357613143612c53565b6131578161315184546130a1565b846130db565b602080601f83116001811461318c57600084156131745750858301515b600019600386901b1c1916600185901b178555613121565b600085815260208120601f198616915b828110156131bb5788860151825594840194600190910190840161319c565b50858210156131d95787850151600019600388901b60f8161c191681555b5050505050600190811b01905550565b634e487b7160e01b600052603260045260246000fd5b634e487b7160e01b600052601160045260246000fd5b81810381811115613228576132286131ff565b92915050565b634e487b7160e01b600052603160045260246000fd5b600060018201613256576132566131ff565b5060010190565b818103613268575050565b61327282546130a1565b67ffffffffffffffff81111561328a5761328a612c53565b6132988161315184546130a1565b6000601f8211600181146132cc57600083156132b45750848201545b600019600385901b1c1916600184901b178455613331565b600085815260209020601f19841690600086815260209020845b8381101561330657828601548255600195860195909101906020016132e6565b50858310156133245781850154600019600388901b60f8161c191681555b50505060018360011b0184555b5050505050565b80820180821115613228576132286131ff565b60008261336857634e487b7160e01b600052601260045260246000fd5b50049056fea264697066735822122050c7d73414ae7c32bb1ba18cf7a509e76b979c3dabc2dc79826903205796310d64736f6c63430008110033",
  "linkReferences": {},
  "deployedLinkReferences": {}
}