{
  "_format": "hh-sol-artifact-1",
  "contractName": "UserDetails",
  "sourceName": "contracts/UserDetails.sol",
  "abi": [
    {
      "inputs": [
        {
          "internalType": "address",
          "name": "_userAddress",
          "type": "address"
        },
        {
          "internalType": "address",
          "name": "_driverAddress",
          "type": "address"
        }
      ],
      "name": "acceptRide",
      "outputs": [],
      "stateMutability": "nonpayable",
      "type": "function"
    },
    {
      "inputs": [
        {
          "internalType": "address",
          "name": "_driverAddress",
          "type": "address"
        },
        {
          "internalType": "string",
          "name": "_pickup",
          "type": "string"
        },
        {
          "internalType": "string",
          "name": "_dropoff",
          "type": "string"
        },
        {
          "internalType": "string",
          "name": "_amount",
          "type": "string"
        }
      ],
      "name": "addData",
      "outputs": [],
      "stateMutability": "nonpayable",
      "type": "function"
    },
    {
      "inputs": [],
      "name": "deleteDriverLocation",
      "outputs": [],
      "stateMutability": "nonpayable",
      "type": "function"
    },
    {
      "inputs": [],
      "name": "getAllDriverDetails",
      "outputs": [
        {
          "internalType": "address[]",
          "name": "",
          "type": "address[]"
        },
        {
          "internalType": "string[]",
          "name": "",
          "type": "string[]"
        },
        {
          "internalType": "string[]",
          "name": "",
          "type": "string[]"
        }
      ],
      "stateMutability": "view",
      "type": "function"
    },
    {
      "inputs": [],
      "name": "getData",
      "outputs": [
        {
          "components": [
            {
              "internalType": "address",
              "name": "userAddress",
              "type": "address"
            },
            {
              "internalType": "address",
              "name": "driverAddress",
              "type": "address"
            },
            {
              "internalType": "string",
              "name": "pickup",
              "type": "string"
            },
            {
              "internalType": "string",
              "name": "dropoff",
              "type": "string"
            },
            {
              "internalType": "bool",
              "name": "accept",
              "type": "bool"
            },
            {
              "internalType": "bool",
              "name": "reject",
              "type": "bool"
            },
            {
              "internalType": "string",
              "name": "amount",
              "type": "string"
            }
          ],
          "internalType": "struct UserDetails.RideSelect[]",
          "name": "",
          "type": "tuple[]"
        }
      ],
      "stateMutability": "view",
      "type": "function"
    },
    {
      "inputs": [
        {
          "internalType": "address",
          "name": "_driverAddress",
          "type": "address"
        },
        {
          "internalType": "address",
          "name": "_userAddress",
          "type": "address"
        },
        {
          "internalType": "uint256",
          "name": "_driverRating",
          "type": "uint256"
        }
      ],
      "name": "payDriver",
      "outputs": [],
      "stateMutability": "payable",
      "type": "function"
    },
    {
      "inputs": [
        {
          "internalType": "address",
          "name": "_userAddress",
          "type": "address"
        },
        {
          "internalType": "address",
          "name": "_driverAddress",
          "type": "address"
        }
      ],
      "name": "rejectRide",
      "outputs": [],
      "stateMutability": "nonpayable",
      "type": "function"
    },
    {
      "inputs": [],
      "name": "removeData",
      "outputs": [],
      "stateMutability": "nonpayable",
      "type": "function"
    },
    {
      "inputs": [],
      "name": "retrieveDriverInformation",
      "outputs": [
        {
          "internalType": "string",
          "name": "",
          "type": "string"
        },
        {
          "internalType": "string",
          "name": "",
          "type": "string"
        },
        {
          "internalType": "string",
          "name": "",
          "type": "string"
        },
        {
          "internalType": "string",
          "name": "",
          "type": "string"
        },
        {
          "internalType": "string",
          "name": "",
          "type": "string"
        },
        {
          "internalType": "string",
          "name": "",
          "type": "string"
        },
        {
          "internalType": "string",
          "name": "",
          "type": "string"
        },
        {
          "internalType": "string",
          "name": "",
          "type": "string"
        },
        {
          "internalType": "string",
          "name": "",
          "type": "string"
        },
        {
          "internalType": "uint256",
          "name": "",
          "type": "uint256"
        }
      ],
      "stateMutability": "view",
      "type": "function"
    },
    {
      "inputs": [
        {
          "internalType": "address",
          "name": "driverAddress",
          "type": "address"
        }
      ],
      "name": "retrieveSpecificDriver",
      "outputs": [
        {
          "internalType": "string",
          "name": "",
          "type": "string"
        },
        {
          "internalType": "string",
          "name": "",
          "type": "string"
        },
        {
          "internalType": "string",
          "name": "",
          "type": "string"
        },
        {
          "internalType": "string",
          "name": "",
          "type": "string"
        },
        {
          "internalType": "string",
          "name": "",
          "type": "string"
        },
        {
          "internalType": "string",
          "name": "",
          "type": "string"
        },
        {
          "internalType": "string",
          "name": "",
          "type": "string"
        },
        {
          "internalType": "string",
          "name": "",
          "type": "string"
        },
        {
          "internalType": "string",
          "name": "",
          "type": "string"
        },
        {
          "internalType": "uint256",
          "name": "",
          "type": "uint256"
        }
      ],
      "stateMutability": "view",
      "type": "function"
    },
    {
      "inputs": [],
      "name": "retrieveUserInformation",
      "outputs": [
        {
          "internalType": "string",
          "name": "",
          "type": "string"
        },
        {
          "internalType": "string",
          "name": "",
          "type": "string"
        },
        {
          "internalType": "string",
          "name": "",
          "type": "string"
        }
      ],
      "stateMutability": "view",
      "type": "function"
    },
    {
      "inputs": [
        {
          "internalType": "string",
          "name": "_name",
          "type": "string"
        },
        {
          "internalType": "string",
          "name": "_phoneNumber",
          "type": "string"
        },
        {
          "internalType": "string",
          "name": "_model",
          "type": "string"
        },
        {
          "internalType": "string",
          "name": "_vehicleNumber",
          "type": "string"
        },
        {
          "internalType": "string",
          "name": "_rcBook",
          "type": "string"
        },
        {
          "internalType": "string",
          "name": "_license",
          "type": "string"
        },
        {
          "internalType": "string",
          "name": "_vehicleName",
          "type": "string"
        },
        {
          "internalType": "string",
          "name": "_aadhar",
          "type": "string"
        }
      ],
      "name": "setDriverInformation",
      "outputs": [],
      "stateMutability": "nonpayable",
      "type": "function"
    },
    {
      "inputs": [
        {
          "internalType": "string",
          "name": "_location",
          "type": "string"
        }
      ],
      "name": "setDriverLocation",
      "outputs": [],
      "stateMutability": "nonpayable",
      "type": "function"
    },
    {
      "inputs": [
        {
          "internalType": "string",
          "name": "_name",
          "type": "string"
        },
        {
          "internalType": "string",
          "name": "_phoneNumber",
          "type": "string"
        },
        {
          "internalType": "string",
          "name": "_aadhar",
          "type": "string"
        }
      ],
      "name": "setUserInformation",
      "outputs": [],
      "stateMutability": "nonpayable",
      "type": "function"
    }
  ],
  "bytecode": "0x608060405234801561001057600080fd5b50612ce1806100206000396000f3fe6080604052600436106100dd5760003560e01c8063612b5d301161007f578063b883325411610059578063b88332541461021b578063d0927e931461023b578063e0e6a6911461025b578063e232ee2e1461027f57600080fd5b8063612b5d30146101bb57806378020090146101db578063923f94cd146101fb57600080fd5b80633bc5de30116100bb5780633bc5de30146101425780633d784d1b1461016457806340976d7414610184578063536f4a041461019757600080fd5b80630ca11da8146100e25780631066b782146100f95780631be9d1ec1461012d575b600080fd5b3480156100ee57600080fd5b506100f761029f565b005b34801561010557600080fd5b5061010e6103f9565b6040516101249a99989796959493929190612337565b60405180910390f35b34801561013957600080fd5b506100f76109be565b34801561014e57600080fd5b50610157610ba1565b6040516101249190612405565b34801561017057600080fd5b506100f761017f366004612507565b610dfc565b6100f761019236600461253a565b61103f565b3480156101a357600080fd5b506101ac6112e6565b604051610124939291906125ce565b3480156101c757600080fd5b5061010e6101d6366004612643565b6115d9565b3480156101e757600080fd5b506100f76101f6366004612507565b611b9f565b34801561020757600080fd5b506100f7610216366004612708565b611c80565b34801561022757600080fd5b506100f7610236366004612745565b611d49565b34801561024757600080fd5b506100f76102563660046127de565b611ea1565b34801561026757600080fd5b50610270611ff9565b6040516101249392919061291e565b34801561028b57600080fd5b506100f761029a366004612957565b612200565b33600090815260016020526040812060020180546102bc906129df565b905011156102f05760408051602080820183526000808352338152600190915291909120600201906102ee9082612a67565b505b60005b6002548110156103f657336001600160a01b03166002828154811061031a5761031a612b27565b6000918252602090912001546001600160a01b0316036103e4576002805461034490600190612b53565b8154811061035457610354612b27565b600091825260209091200154600280546001600160a01b03909216918390811061038057610380612b27565b9060005260206000200160006101000a8154816001600160a01b0302191690836001600160a01b0316021790555060028054806103bf576103bf612b6c565b600082815260209020810160001990810180546001600160a01b031916905501905550565b806103ee81612b82565b9150506102f3565b50565b606080606080606080606080606060008060016000336001600160a01b03166001600160a01b031681526020019081526020016000206040518061014001604052908160008201805461044b906129df565b80601f0160208091040260200160405190810160405280929190818152602001828054610477906129df565b80156104c45780601f10610499576101008083540402835291602001916104c4565b820191906000526020600020905b8154815290600101906020018083116104a757829003601f168201915b505050505081526020016001820180546104dd906129df565b80601f0160208091040260200160405190810160405280929190818152602001828054610509906129df565b80156105565780601f1061052b57610100808354040283529160200191610556565b820191906000526020600020905b81548152906001019060200180831161053957829003601f168201915b5050505050815260200160028201805461056f906129df565b80601f016020809104026020016040519081016040528092919081815260200182805461059b906129df565b80156105e85780601f106105bd576101008083540402835291602001916105e8565b820191906000526020600020905b8154815290600101906020018083116105cb57829003601f168201915b50505050508152602001600382018054610601906129df565b80601f016020809104026020016040519081016040528092919081815260200182805461062d906129df565b801561067a5780601f1061064f5761010080835404028352916020019161067a565b820191906000526020600020905b81548152906001019060200180831161065d57829003601f168201915b50505050508152602001600482018054610693906129df565b80601f01602080910402602001604051908101604052809291908181526020018280546106bf906129df565b801561070c5780601f106106e15761010080835404028352916020019161070c565b820191906000526020600020905b8154815290600101906020018083116106ef57829003601f168201915b50505050508152602001600582018054610725906129df565b80601f0160208091040260200160405190810160405280929190818152602001828054610751906129df565b801561079e5780601f106107735761010080835404028352916020019161079e565b820191906000526020600020905b81548152906001019060200180831161078157829003601f168201915b505050505081526020016006820180546107b7906129df565b80601f01602080910402602001604051908101604052809291908181526020018280546107e3906129df565b80156108305780601f1061080557610100808354040283529160200191610830565b820191906000526020600020905b81548152906001019060200180831161081357829003601f168201915b50505050508152602001600782018054610849906129df565b80601f0160208091040260200160405190810160405280929190818152602001828054610875906129df565b80156108c25780601f10610897576101008083540402835291602001916108c2565b820191906000526020600020905b8154815290600101906020018083116108a557829003601f168201915b505050505081526020016008820180546108db906129df565b80601f0160208091040260200160405190810160405280929190818152602001828054610907906129df565b80156109545780601f1061092957610100808354040283529160200191610954565b820191906000526020600020905b81548152906001019060200180831161093757829003601f168201915b505050505081526020016009820154815250509050806000015181602001518260400151836060015184608001518560a001518660c001518760e001518861010001518961012001519a509a509a509a509a509a509a509a509a509a505090919293949596979899565b3360005b600354811015610b9d57816001600160a01b0316600382815481106109e9576109e9612b27565b60009182526020909120600690910201546001600160a01b031603610b8b5760038054610a1890600190612b53565b81548110610a2857610a28612b27565b906000526020600020906006020160038281548110610a4957610a49612b27565b60009182526020909120825460069092020180546001600160a01b039283166001600160a01b0319918216178255600180850154908301805491909416911617909155600280820190610a9e90840182612b9b565b50600381810190610ab190840182612b9b565b5060048281018054918301805460ff938416151560ff19821681178355925461010090819004909416151590930261ff001990921661ffff1990931692909217179055600580820190610b0690840182612b9b565b509050506003805480610b1b57610b1b612b6c565b60008281526020812060066000199093019283020180546001600160a01b03199081168255600182018054909116905590610b5960028301826122a3565b610b676003830160006122a3565b60048201805461ffff19169055610b826005830160006122a3565b505090556109c2565b80610b9581612b82565b9150506109c2565b5050565b60606003805480602002602001604051908101604052809291908181526020016000905b82821015610df35760008481526020908190206040805160e0810182526006860290920180546001600160a01b0390811684526001820154169383019390935260028301805492939291840191610c1b906129df565b80601f0160208091040260200160405190810160405280929190818152602001828054610c47906129df565b8015610c945780601f10610c6957610100808354040283529160200191610c94565b820191906000526020600020905b815481529060010190602001808311610c7757829003601f168201915b50505050508152602001600382018054610cad906129df565b80601f0160208091040260200160405190810160405280929190818152602001828054610cd9906129df565b8015610d265780601f10610cfb57610100808354040283529160200191610d26565b820191906000526020600020905b815481529060010190602001808311610d0957829003601f168201915b5050509183525050600482015460ff808216151560208401526101009091041615156040820152600582018054606090920191610d62906129df565b80601f0160208091040260200160405190810160405280929190818152602001828054610d8e906129df565b8015610ddb5780601f10610db057610100808354040283529160200191610ddb565b820191906000526020600020905b815481529060010190602001808311610dbe57829003601f168201915b50505050508152505081526020019060010190610bc5565b50505050905090565b6001600160a01b03811660009081526001602052604081206002018054610e22906129df565b90501115610e56576040805160208082018352600080835233815260019091529190912060020190610e549082612a67565b505b60005b600254811015610f5e57816001600160a01b031660028281548110610e8057610e80612b27565b6000918252602090912001546001600160a01b031603610f4c5760028054610eaa90600190612b53565b81548110610eba57610eba612b27565b600091825260209091200154600280546001600160a01b039092169183908110610ee657610ee6612b27565b9060005260206000200160006101000a8154816001600160a01b0302191690836001600160a01b031602179055506002805480610f2557610f25612b6c565b600082815260209020810160001990810180546001600160a01b0319169055019055610f5e565b80610f5681612b82565b915050610e59565b5060005b60035481101561103a57826001600160a01b031660038281548110610f8957610f89612b27565b60009182526020909120600690910201546001600160a01b0316148015610fe75750816001600160a01b031660038281548110610fc857610fc8612b27565b60009182526020909120600160069092020101546001600160a01b0316145b156110285760016003828154811061100157611001612b27565b60009182526020909120600690910201600401805460ff1916911515919091179055505050565b8061103281612b82565b915050610f62565b505050565b60005b60035481101561126157826001600160a01b03166003828154811061106957611069612b27565b60009182526020909120600690910201546001600160a01b03161480156110c75750836001600160a01b0316600382815481106110a8576110a8612b27565b60009182526020909120600160069092020101546001600160a01b0316145b1561124f57600380546110dc90600190612b53565b815481106110ec576110ec612b27565b90600052602060002090600602016003828154811061110d5761110d612b27565b60009182526020909120825460069092020180546001600160a01b039283166001600160a01b031991821617825560018085015490830180549190941691161790915560028082019061116290840182612b9b565b5060038181019061117590840182612b9b565b5060048281018054918301805460ff938416151560ff19821681178355925461010090819004909416151590930261ff001990921661ffff19909316929092171790556005808201906111ca90840182612b9b565b5090505060038054806111df576111df612b6c565b60008281526020812060066000199093019283020180546001600160a01b0319908116825560018201805490911690559061121d60028301826122a3565b61122b6003830160006122a3565b60048201805461ffff191690556112466005830160006122a3565b50509055611261565b8061125981612b82565b915050611042565b506001600160a01b03831660009081526001602052604090206009015460029061128b9083612c76565b6112959190612c89565b6001600160a01b03841660008181526001602052604080822060090193909355915190913480156108fc02929091818181858888f193505050501580156112e0573d6000803e3d6000fd5b50505050565b6060806060600060028054905067ffffffffffffffff81111561130b5761130b612665565b60405190808252806020026020018201604052801561133e57816020015b60608152602001906001900390816113295790505b5060025490915060009067ffffffffffffffff81111561136057611360612665565b60405190808252806020026020018201604052801561139357816020015b606081526020019060019003908161137e5790505b50905060005b60025481101561156b576000600282815481106113b8576113b8612b27565b60009182526020808320909101546001600160a01b0316808352600190915260409091206002018054919250906113ee906129df565b80601f016020809104026020016040519081016040528092919081815260200182805461141a906129df565b80156114675780601f1061143c57610100808354040283529160200191611467565b820191906000526020600020905b81548152906001019060200180831161144a57829003601f168201915b505050505084838151811061147e5761147e612b27565b602002602001018190525060016000826001600160a01b03166001600160a01b0316815260200190815260200160002060030180546114bc906129df565b80601f01602080910402602001604051908101604052809291908181526020018280546114e8906129df565b80156115355780601f1061150a57610100808354040283529160200191611535565b820191906000526020600020905b81548152906001019060200180831161151857829003601f168201915b505050505083838151811061154c5761154c612b27565b602002602001018190525050808061156390612b82565b915050611399565b5060028282828054806020026020016040519081016040528092919081815260200182805480156115c557602002820191906000526020600020905b81546001600160a01b031681526001909101906020018083116115a7575b505050505092509450945094505050909192565b6060806060806060806060806060600080600160008d6001600160a01b03166001600160a01b031681526020019081526020016000206040518061014001604052908160008201805461162b906129df565b80601f0160208091040260200160405190810160405280929190818152602001828054611657906129df565b80156116a45780601f10611679576101008083540402835291602001916116a4565b820191906000526020600020905b81548152906001019060200180831161168757829003601f168201915b505050505081526020016001820180546116bd906129df565b80601f01602080910402602001604051908101604052809291908181526020018280546116e9906129df565b80156117365780601f1061170b57610100808354040283529160200191611736565b820191906000526020600020905b81548152906001019060200180831161171957829003601f168201915b5050505050815260200160028201805461174f906129df565b80601f016020809104026020016040519081016040528092919081815260200182805461177b906129df565b80156117c85780601f1061179d576101008083540402835291602001916117c8565b820191906000526020600020905b8154815290600101906020018083116117ab57829003601f168201915b505050505081526020016003820180546117e1906129df565b80601f016020809104026020016040519081016040528092919081815260200182805461180d906129df565b801561185a5780601f1061182f5761010080835404028352916020019161185a565b820191906000526020600020905b81548152906001019060200180831161183d57829003601f168201915b50505050508152602001600482018054611873906129df565b80601f016020809104026020016040519081016040528092919081815260200182805461189f906129df565b80156118ec5780601f106118c1576101008083540402835291602001916118ec565b820191906000526020600020905b8154815290600101906020018083116118cf57829003601f168201915b50505050508152602001600582018054611905906129df565b80601f0160208091040260200160405190810160405280929190818152602001828054611931906129df565b801561197e5780601f106119535761010080835404028352916020019161197e565b820191906000526020600020905b81548152906001019060200180831161196157829003601f168201915b50505050508152602001600682018054611997906129df565b80601f01602080910402602001604051908101604052809291908181526020018280546119c3906129df565b8015611a105780601f106119e557610100808354040283529160200191611a10565b820191906000526020600020905b8154815290600101906020018083116119f357829003601f168201915b50505050508152602001600782018054611a29906129df565b80601f0160208091040260200160405190810160405280929190818152602001828054611a55906129df565b8015611aa25780601f10611a7757610100808354040283529160200191611aa2565b820191906000526020600020905b815481529060010190602001808311611a8557829003601f168201915b50505050508152602001600882018054611abb906129df565b80601f0160208091040260200160405190810160405280929190818152602001828054611ae7906129df565b8015611b345780601f10611b0957610100808354040283529160200191611b34565b820191906000526020600020905b815481529060010190602001808311611b1757829003601f168201915b505050505081526020016009820154815250509050806000015181602001518260400151836060015184608001518560a001518660c001518760e001518861010001518961012001519a509a509a509a509a509a509a509a509a509a50509193959799509193959799565b60005b60035481101561103a57826001600160a01b031660038281548110611bc957611bc9612b27565b60009182526020909120600690910201546001600160a01b0316148015611c275750816001600160a01b031660038281548110611c0857611c08612b27565b60009182526020909120600160069092020101546001600160a01b0316145b15611c6e57600160038281548110611c4157611c41612b27565b906000526020600020906006020160040160016101000a81548160ff021916908315150217905550505050565b80611c7881612b82565b915050611ba2565b336000908152600160205260409020600201611c9c8282612a67565b506000805b600254811015611cfd57336001600160a01b031660028281548110611cc857611cc8612b27565b6000918252602090912001546001600160a01b031603611ceb5760019150611cfd565b80611cf581612b82565b915050611ca1565b5080610b9d57600280546001810182556000919091527f405787fa12a823e0f2b7631cc41b3ba8828b3321ca811111fa75cd3aa3bb5ace0180546001600160a01b031916331790555050565b6040805160e0810182523381526001600160a01b03868116602083019081529282018681526060830186905260006080840181905260a0840181905260c08401869052600380546001810182559152835160069091027fc2575a0e9e593c00f959f8c92f12db2869c3395a3b0502d05e2516446f71f85b810180549285166001600160a01b031993841617815595517fc2575a0e9e593c00f959f8c92f12db2869c3395a3b0502d05e2516446f71f85c8201805491909516921691909117909255519192839290917fc2575a0e9e593c00f959f8c92f12db2869c3395a3b0502d05e2516446f71f85d0190611e3e9082612a67565b5060608201516003820190611e539082612a67565b50608082015160048201805460a085015115156101000261ff00199315159390931661ffff199091161791909117905560c08201516005820190611e979082612a67565b5050505050505050565b6706f05b59d3b2000033311015611ef65760405162461bcd60e51b8152602060048201526014602482015273496e73756666696369656e742062616c616e636560601b60448201526064015b60405180910390fd5b336000908152600160205260409020611f0f8982612a67565b5033600090815260016020819052604090912001611f2d8882612a67565b50336000908152600160205260409020600301611f4a8782612a67565b50336000908152600160205260409020600401611f678682612a67565b50336000908152600160205260409020600501611f848582612a67565b50336000908152600160205260409020600601611fa18482612a67565b50336000908152600160205260409020600701611fbe8382612a67565b50336000908152600160205260409020600801611fdb8282612a67565b50503360009081526001602052604081206009015550505050505050565b60608060606000806000336001600160a01b03166001600160a01b0316815260200190815260200160002060405180606001604052908160008201805461203f906129df565b80601f016020809104026020016040519081016040528092919081815260200182805461206b906129df565b80156120b85780601f1061208d576101008083540402835291602001916120b8565b820191906000526020600020905b81548152906001019060200180831161209b57829003601f168201915b505050505081526020016001820180546120d1906129df565b80601f01602080910402602001604051908101604052809291908181526020018280546120fd906129df565b801561214a5780601f1061211f5761010080835404028352916020019161214a565b820191906000526020600020905b81548152906001019060200180831161212d57829003601f168201915b50505050508152602001600282018054612163906129df565b80601f016020809104026020016040519081016040528092919081815260200182805461218f906129df565b80156121dc5780601f106121b1576101008083540402835291602001916121dc565b820191906000526020600020905b8154815290600101906020018083116121bf57829003601f168201915b50505091909252505081516020830151604090930151909792965094509092505050565b6706f05b59d3b20000333110156122505760405162461bcd60e51b8152602060048201526014602482015273496e73756666696369656e742062616c616e636560601b6044820152606401611eed565b3360009081526020819052604090206122698482612a67565b503360009081526020819052604090206001016122868382612a67565b503360009081526020819052604090206002016112e08282612a67565b5080546122af906129df565b6000825580601f106122bf575050565b601f0160209004906000526020600020908101906103f691905b808211156122ed57600081556001016122d9565b5090565b6000815180845260005b81811015612317576020818501810151868301820152016122fb565b506000602082860101526020601f19601f83011685010191505092915050565b600061014080835261234b8184018e6122f1565b9050828103602084015261235f818d6122f1565b90508281036040840152612373818c6122f1565b90508281036060840152612387818b6122f1565b9050828103608084015261239b818a6122f1565b905082810360a08401526123af81896122f1565b905082810360c08401526123c381886122f1565b905082810360e08401526123d781876122f1565b90508281036101008401526123ec81866122f1565b915050826101208301529b9a5050505050505050505050565b60006020808301818452808551808352604092508286019150828160051b87010184880160005b838110156124dd57888303603f19018552815180516001600160a01b0390811685528882015116888501528681015160e088860181905290612470828701826122f1565b9150506060808301518683038288015261248a83826122f1565b925050506080808301516124a18288018215159052565b505060a08281015115159086015260c091820151858203928601929092526124c981836122f1565b96890196945050509086019060010161242c565b509098975050505050505050565b80356001600160a01b038116811461250257600080fd5b919050565b6000806040838503121561251a57600080fd5b612523836124eb565b9150612531602084016124eb565b90509250929050565b60008060006060848603121561254f57600080fd5b612558846124eb565b9250612566602085016124eb565b9150604084013590509250925092565b600082825180855260208086019550808260051b84010181860160005b848110156125c157601f198684030189526125af8383516122f1565b98840198925090830190600101612593565b5090979650505050505050565b606080825284519082018190526000906020906080840190828801845b828110156126105781516001600160a01b0316845292840192908401906001016125eb565b505050838103828501526126248187612576565b91505082810360408401526126398185612576565b9695505050505050565b60006020828403121561265557600080fd5b61265e826124eb565b9392505050565b634e487b7160e01b600052604160045260246000fd5b600082601f83011261268c57600080fd5b813567ffffffffffffffff808211156126a7576126a7612665565b604051601f8301601f19908116603f011681019082821181831017156126cf576126cf612665565b816040528381528660208588010111156126e857600080fd5b836020870160208301376000602085830101528094505050505092915050565b60006020828403121561271a57600080fd5b813567ffffffffffffffff81111561273157600080fd5b61273d8482850161267b565b949350505050565b6000806000806080858703121561275b57600080fd5b612764856124eb565b9350602085013567ffffffffffffffff8082111561278157600080fd5b61278d8883890161267b565b945060408701359150808211156127a357600080fd5b6127af8883890161267b565b935060608701359150808211156127c557600080fd5b506127d28782880161267b565b91505092959194509250565b600080600080600080600080610100898b0312156127fb57600080fd5b883567ffffffffffffffff8082111561281357600080fd5b61281f8c838d0161267b565b995060208b013591508082111561283557600080fd5b6128418c838d0161267b565b985060408b013591508082111561285757600080fd5b6128638c838d0161267b565b975060608b013591508082111561287957600080fd5b6128858c838d0161267b565b965060808b013591508082111561289b57600080fd5b6128a78c838d0161267b565b955060a08b01359150808211156128bd57600080fd5b6128c98c838d0161267b565b945060c08b01359150808211156128df57600080fd5b6128eb8c838d0161267b565b935060e08b013591508082111561290157600080fd5b5061290e8b828c0161267b565b9150509295985092959890939650565b60608152600061293160608301866122f1565b828103602084015261294381866122f1565b9050828103604084015261263981856122f1565b60008060006060848603121561296c57600080fd5b833567ffffffffffffffff8082111561298457600080fd5b6129908783880161267b565b945060208601359150808211156129a657600080fd5b6129b28783880161267b565b935060408601359150808211156129c857600080fd5b506129d58682870161267b565b9150509250925092565b600181811c908216806129f357607f821691505b602082108103612a1357634e487b7160e01b600052602260045260246000fd5b50919050565b601f82111561103a57600081815260208120601f850160051c81016020861015612a405750805b601f850160051c820191505b81811015612a5f57828155600101612a4c565b505050505050565b815167ffffffffffffffff811115612a8157612a81612665565b612a9581612a8f84546129df565b84612a19565b602080601f831160018114612aca5760008415612ab25750858301515b600019600386901b1c1916600185901b178555612a5f565b600085815260208120601f198616915b82811015612af957888601518255948401946001909101908401612ada565b5085821015612b175787850151600019600388901b60f8161c191681555b5050505050600190811b01905550565b634e487b7160e01b600052603260045260246000fd5b634e487b7160e01b600052601160045260246000fd5b81810381811115612b6657612b66612b3d565b92915050565b634e487b7160e01b600052603160045260246000fd5b600060018201612b9457612b94612b3d565b5060010190565b818103612ba6575050565b612bb082546129df565b67ffffffffffffffff811115612bc857612bc8612665565b612bd681612a8f84546129df565b6000601f821160018114612c0a5760008315612bf25750848201545b600019600385901b1c1916600184901b178455612c6f565b600085815260209020601f19841690600086815260209020845b83811015612c445782860154825560019586019590910190602001612c24565b5085831015612c625781850154600019600388901b60f8161c191681555b50505060018360011b0184555b5050505050565b80820180821115612b6657612b66612b3d565b600082612ca657634e487b7160e01b600052601260045260246000fd5b50049056fea264697066735822122090b9a8d4c6c960ec691d43473138e90ff2f8f730941671c36490d2db7f07fdb964736f6c63430008110033",
  "linkReferences": {},
  "deployedLinkReferences": {}
}