{
  "_format": "hh-sol-artifact-1",
  "contractName": "UserDetails",
  "sourceName": "contracts/UserDetails.sol",
  "abi": [
    {
      "inputs": [
        {
          "internalType": "address",
          "name": "_userAddress",
          "type": "address"
        },
        {
          "internalType": "address",
          "name": "_driverAddress",
          "type": "address"
        }
      ],
      "name": "acceptRide",
      "outputs": [],
      "stateMutability": "nonpayable",
      "type": "function"
    },
    {
      "inputs": [
        {
          "internalType": "address",
          "name": "_driverAddress",
          "type": "address"
        },
        {
          "internalType": "string",
          "name": "_pickup",
          "type": "string"
        },
        {
          "internalType": "string",
          "name": "_dropoff",
          "type": "string"
        },
        {
          "internalType": "string",
          "name": "_amount",
          "type": "string"
        }
      ],
      "name": "addData",
      "outputs": [],
      "stateMutability": "nonpayable",
      "type": "function"
    },
    {
      "inputs": [],
      "name": "deleteDriverLocation",
      "outputs": [],
      "stateMutability": "nonpayable",
      "type": "function"
    },
    {
      "inputs": [],
      "name": "displayRideHistory",
      "outputs": [
        {
          "components": [
            {
              "internalType": "address",
              "name": "userAddress",
              "type": "address"
            },
            {
              "internalType": "address",
              "name": "driverAddress",
              "type": "address"
            },
            {
              "internalType": "string",
              "name": "pickup",
              "type": "string"
            },
            {
              "internalType": "string",
              "name": "dropoff",
              "type": "string"
            },
            {
              "internalType": "string",
              "name": "amount",
              "type": "string"
            },
            {
              "internalType": "uint256",
              "name": "date",
              "type": "uint256"
            }
          ],
          "internalType": "struct UserDetails.rideHistory[]",
          "name": "",
          "type": "tuple[]"
        }
      ],
      "stateMutability": "view",
      "type": "function"
    },
    {
      "inputs": [],
      "name": "getAllDriverDetails",
      "outputs": [
        {
          "internalType": "address[]",
          "name": "",
          "type": "address[]"
        },
        {
          "internalType": "string[]",
          "name": "",
          "type": "string[]"
        },
        {
          "internalType": "string[]",
          "name": "",
          "type": "string[]"
        }
      ],
      "stateMutability": "view",
      "type": "function"
    },
    {
      "inputs": [],
      "name": "getData",
      "outputs": [
        {
          "components": [
            {
              "internalType": "address",
              "name": "userAddress",
              "type": "address"
            },
            {
              "internalType": "address",
              "name": "driverAddress",
              "type": "address"
            },
            {
              "internalType": "string",
              "name": "pickup",
              "type": "string"
            },
            {
              "internalType": "string",
              "name": "dropoff",
              "type": "string"
            },
            {
              "internalType": "bool",
              "name": "accept",
              "type": "bool"
            },
            {
              "internalType": "string",
              "name": "amount",
              "type": "string"
            }
          ],
          "internalType": "struct UserDetails.RideSelect[]",
          "name": "",
          "type": "tuple[]"
        }
      ],
      "stateMutability": "view",
      "type": "function"
    },
    {
      "inputs": [
        {
          "internalType": "address",
          "name": "_driverAddress",
          "type": "address"
        },
        {
          "internalType": "address",
          "name": "_userAddress",
          "type": "address"
        },
        {
          "internalType": "uint256",
          "name": "_driverRating",
          "type": "uint256"
        }
      ],
      "name": "payDriver",
      "outputs": [],
      "stateMutability": "payable",
      "type": "function"
    },
    {
      "inputs": [
        {
          "internalType": "address",
          "name": "_userAddress",
          "type": "address"
        },
        {
          "internalType": "address",
          "name": "_driverAddress",
          "type": "address"
        }
      ],
      "name": "rejectRide",
      "outputs": [],
      "stateMutability": "nonpayable",
      "type": "function"
    },
    {
      "inputs": [],
      "name": "removeData",
      "outputs": [],
      "stateMutability": "nonpayable",
      "type": "function"
    },
    {
      "inputs": [],
      "name": "retrieveDriverInformation",
      "outputs": [
        {
          "internalType": "string",
          "name": "",
          "type": "string"
        },
        {
          "internalType": "string",
          "name": "",
          "type": "string"
        },
        {
          "internalType": "string",
          "name": "",
          "type": "string"
        },
        {
          "internalType": "string",
          "name": "",
          "type": "string"
        },
        {
          "internalType": "string",
          "name": "",
          "type": "string"
        },
        {
          "internalType": "string",
          "name": "",
          "type": "string"
        },
        {
          "internalType": "string",
          "name": "",
          "type": "string"
        },
        {
          "internalType": "string",
          "name": "",
          "type": "string"
        },
        {
          "internalType": "string",
          "name": "",
          "type": "string"
        },
        {
          "internalType": "uint256",
          "name": "",
          "type": "uint256"
        }
      ],
      "stateMutability": "view",
      "type": "function"
    },
    {
      "inputs": [
        {
          "internalType": "address",
          "name": "driverAddress",
          "type": "address"
        }
      ],
      "name": "retrieveSpecificDriver",
      "outputs": [
        {
          "internalType": "string",
          "name": "",
          "type": "string"
        },
        {
          "internalType": "string",
          "name": "",
          "type": "string"
        },
        {
          "internalType": "string",
          "name": "",
          "type": "string"
        },
        {
          "internalType": "string",
          "name": "",
          "type": "string"
        },
        {
          "internalType": "string",
          "name": "",
          "type": "string"
        },
        {
          "internalType": "string",
          "name": "",
          "type": "string"
        },
        {
          "internalType": "string",
          "name": "",
          "type": "string"
        },
        {
          "internalType": "string",
          "name": "",
          "type": "string"
        },
        {
          "internalType": "string",
          "name": "",
          "type": "string"
        },
        {
          "internalType": "uint256",
          "name": "",
          "type": "uint256"
        }
      ],
      "stateMutability": "view",
      "type": "function"
    },
    {
      "inputs": [],
      "name": "retrieveUserInformation",
      "outputs": [
        {
          "internalType": "string",
          "name": "",
          "type": "string"
        },
        {
          "internalType": "string",
          "name": "",
          "type": "string"
        },
        {
          "internalType": "string",
          "name": "",
          "type": "string"
        },
        {
          "internalType": "uint256",
          "name": "",
          "type": "uint256"
        }
      ],
      "stateMutability": "view",
      "type": "function"
    },
    {
      "inputs": [
        {
          "internalType": "string",
          "name": "_name",
          "type": "string"
        },
        {
          "internalType": "string",
          "name": "_phoneNumber",
          "type": "string"
        },
        {
          "internalType": "string",
          "name": "_model",
          "type": "string"
        },
        {
          "internalType": "string",
          "name": "_vehicleNumber",
          "type": "string"
        },
        {
          "internalType": "string",
          "name": "_dob",
          "type": "string"
        },
        {
          "internalType": "string",
          "name": "_license",
          "type": "string"
        },
        {
          "internalType": "string",
          "name": "_vehicleName",
          "type": "string"
        },
        {
          "internalType": "string",
          "name": "_aadhar",
          "type": "string"
        }
      ],
      "name": "setDriverInformation",
      "outputs": [],
      "stateMutability": "nonpayable",
      "type": "function"
    },
    {
      "inputs": [
        {
          "internalType": "string",
          "name": "_location",
          "type": "string"
        }
      ],
      "name": "setDriverLocation",
      "outputs": [],
      "stateMutability": "nonpayable",
      "type": "function"
    },
    {
      "inputs": [
        {
          "internalType": "string",
          "name": "_name",
          "type": "string"
        },
        {
          "internalType": "string",
          "name": "_phoneNumber",
          "type": "string"
        },
        {
          "internalType": "string",
          "name": "_aadhar",
          "type": "string"
        }
      ],
      "name": "setUserInformation",
      "outputs": [],
      "stateMutability": "nonpayable",
      "type": "function"
    },
    {
      "inputs": [
        {
          "internalType": "address",
          "name": "userAddress",
          "type": "address"
        },
        {
          "internalType": "uint256",
          "name": "rating",
          "type": "uint256"
        }
      ],
      "name": "updateUserRating",
      "outputs": [],
      "stateMutability": "nonpayable",
      "type": "function"
    }
  ],
  "bytecode": "0x608060405234801561001057600080fd5b5061345d806100206000396000f3fe6080604052600436106100f35760003560e01c8063780200901161008a578063d0927e9311610059578063d0927e9314610271578063e0e6a69114610291578063e232ee2e146102b6578063ff08b57c146102d657600080fd5b806378020090146101f15780639181b12814610211578063923f94cd14610231578063b88332541461025157600080fd5b80633d784d1b116100c65780633d784d1b1461017a57806340976d741461019a578063536f4a04146101ad578063612b5d30146101d157600080fd5b80630ca11da8146100f85780631066b7821461010f5780631be9d1ec146101435780633bc5de3014610158575b600080fd5b34801561010457600080fd5b5061010d6102f8565b005b34801561011b57600080fd5b50610124610452565b60405161013a9a999897969594939291906129cf565b60405180910390f35b34801561014f57600080fd5b5061010d610a17565b34801561016457600080fd5b5061016d610bd3565b60405161013a9190612a9d565b34801561018657600080fd5b5061010d610195366004612b8b565b610e1e565b61010d6101a8366004612bbe565b611061565b3480156101b957600080fd5b506101c261164a565b60405161013a93929190612c4c565b3480156101dd57600080fd5b506101246101ec366004612cc1565b61193d565b3480156101fd57600080fd5b5061010d61020c366004612b8b565b611f03565b34801561021d57600080fd5b5061010d61022c366004612ce3565b612131565b34801561023d57600080fd5b5061010d61024c366004612db0565b61216f565b34801561025d57600080fd5b5061010d61026c366004612ded565b612238565b34801561027d57600080fd5b5061010d61028c366004612e86565b612372565b34801561029d57600080fd5b506102a6612479565b60405161013a9493929190612fc6565b3480156102c257600080fd5b5061010d6102d1366004613011565b612692565b3480156102e257600080fd5b506102eb612702565b60405161013a9190613099565b33600090815260016020526040812060020180546103159061315b565b9050111561034957604080516020808201835260008083523381526001909152919091206002019061034790826131e3565b505b60005b60025481101561044f57336001600160a01b031660028281548110610373576103736132a3565b6000918252602090912001546001600160a01b03160361043d576002805461039d906001906132cf565b815481106103ad576103ad6132a3565b600091825260209091200154600280546001600160a01b0390921691839081106103d9576103d96132a3565b9060005260206000200160006101000a8154816001600160a01b0302191690836001600160a01b031602179055506002805480610418576104186132e8565b600082815260209020810160001990810180546001600160a01b031916905501905550565b80610447816132fe565b91505061034c565b50565b606080606080606080606080606060008060016000336001600160a01b03166001600160a01b03168152602001908152602001600020604051806101400160405290816000820180546104a49061315b565b80601f01602080910402602001604051908101604052809291908181526020018280546104d09061315b565b801561051d5780601f106104f25761010080835404028352916020019161051d565b820191906000526020600020905b81548152906001019060200180831161050057829003601f168201915b505050505081526020016001820180546105369061315b565b80601f01602080910402602001604051908101604052809291908181526020018280546105629061315b565b80156105af5780601f10610584576101008083540402835291602001916105af565b820191906000526020600020905b81548152906001019060200180831161059257829003601f168201915b505050505081526020016002820180546105c89061315b565b80601f01602080910402602001604051908101604052809291908181526020018280546105f49061315b565b80156106415780601f1061061657610100808354040283529160200191610641565b820191906000526020600020905b81548152906001019060200180831161062457829003601f168201915b5050505050815260200160038201805461065a9061315b565b80601f01602080910402602001604051908101604052809291908181526020018280546106869061315b565b80156106d35780601f106106a8576101008083540402835291602001916106d3565b820191906000526020600020905b8154815290600101906020018083116106b657829003601f168201915b505050505081526020016004820180546106ec9061315b565b80601f01602080910402602001604051908101604052809291908181526020018280546107189061315b565b80156107655780601f1061073a57610100808354040283529160200191610765565b820191906000526020600020905b81548152906001019060200180831161074857829003601f168201915b5050505050815260200160058201805461077e9061315b565b80601f01602080910402602001604051908101604052809291908181526020018280546107aa9061315b565b80156107f75780601f106107cc576101008083540402835291602001916107f7565b820191906000526020600020905b8154815290600101906020018083116107da57829003601f168201915b505050505081526020016006820180546108109061315b565b80601f016020809104026020016040519081016040528092919081815260200182805461083c9061315b565b80156108895780601f1061085e57610100808354040283529160200191610889565b820191906000526020600020905b81548152906001019060200180831161086c57829003601f168201915b505050505081526020016007820180546108a29061315b565b80601f01602080910402602001604051908101604052809291908181526020018280546108ce9061315b565b801561091b5780601f106108f05761010080835404028352916020019161091b565b820191906000526020600020905b8154815290600101906020018083116108fe57829003601f168201915b505050505081526020016008820180546109349061315b565b80601f01602080910402602001604051908101604052809291908181526020018280546109609061315b565b80156109ad5780601f10610982576101008083540402835291602001916109ad565b820191906000526020600020905b81548152906001019060200180831161099057829003601f168201915b505050505081526020016009820154815250509050806000015181602001518260400151836060015184608001518560a001518660c001518760e001518861010001518961012001519a509a509a509a509a509a509a509a509a509a505090919293949596979899565b3360005b600454811015610bcf57816001600160a01b031660048281548110610a4257610a426132a3565b60009182526020909120600690910201546001600160a01b031603610bbd5760048054610a71906001906132cf565b81548110610a8157610a816132a3565b906000526020600020906006020160048281548110610aa257610aa26132a3565b60009182526020909120825460069092020180546001600160a01b039283166001600160a01b0319918216178255600180850154908301805491909416911617909155600280820190610af790840182613317565b50600381810190610b0a90840182613317565b50600482810154908201805460ff191660ff9092161515919091179055600580820190610b3990840182613317565b509050506004805480610b4e57610b4e6132e8565b60008281526020812060066000199093019283020180546001600160a01b03199081168255600182018054909116905590610b8c600283018261293b565b610b9a60038301600061293b565b60048201805460ff19169055610bb460058301600061293b565b50509055610a1b565b80610bc7816132fe565b915050610a1b565b5050565b60606004805480602002602001604051908101604052809291908181526020016000905b82821015610e155760008481526020908190206040805160c0810182526006860290920180546001600160a01b0390811684526001820154169383019390935260028301805492939291840191610c4d9061315b565b80601f0160208091040260200160405190810160405280929190818152602001828054610c799061315b565b8015610cc65780601f10610c9b57610100808354040283529160200191610cc6565b820191906000526020600020905b815481529060010190602001808311610ca957829003601f168201915b50505050508152602001600382018054610cdf9061315b565b80601f0160208091040260200160405190810160405280929190818152602001828054610d0b9061315b565b8015610d585780601f10610d2d57610100808354040283529160200191610d58565b820191906000526020600020905b815481529060010190602001808311610d3b57829003601f168201915b5050509183525050600482015460ff1615156020820152600582018054604090920191610d849061315b565b80601f0160208091040260200160405190810160405280929190818152602001828054610db09061315b565b8015610dfd5780601f10610dd257610100808354040283529160200191610dfd565b820191906000526020600020905b815481529060010190602001808311610de057829003601f168201915b50505050508152505081526020019060010190610bf7565b50505050905090565b6001600160a01b03811660009081526001602052604081206002018054610e449061315b565b90501115610e78576040805160208082018352600080835233815260019091529190912060020190610e7690826131e3565b505b60005b600254811015610f8057816001600160a01b031660028281548110610ea257610ea26132a3565b6000918252602090912001546001600160a01b031603610f6e5760028054610ecc906001906132cf565b81548110610edc57610edc6132a3565b600091825260209091200154600280546001600160a01b039092169183908110610f0857610f086132a3565b9060005260206000200160006101000a8154816001600160a01b0302191690836001600160a01b031602179055506002805480610f4757610f476132e8565b600082815260209020810160001990810180546001600160a01b0319169055019055610f80565b80610f78816132fe565b915050610e7b565b5060005b60045481101561105c57826001600160a01b031660048281548110610fab57610fab6132a3565b60009182526020909120600690910201546001600160a01b03161480156110095750816001600160a01b031660048281548110610fea57610fea6132a3565b60009182526020909120600160069092020101546001600160a01b0316145b1561104a57600160048281548110611023576110236132a3565b60009182526020909120600690910201600401805460ff1916911515919091179055505050565b80611054816132fe565b915050610f84565b505050565b60005b6004548110156115c557826001600160a01b03166004828154811061108b5761108b6132a3565b60009182526020909120600690910201546001600160a01b03161480156110e95750836001600160a01b0316600482815481106110ca576110ca6132a3565b60009182526020909120600160069092020101546001600160a01b0316145b8015611120575060048181548110611103576111036132a3565b600091825260209091206004600690920201015460ff1615156001145b156115b35760036040518060c0016040528060048481548110611145576111456132a3565b6000918252602091829020600690910201546001600160a01b031682526004805492909101918590811061117b5761117b6132a3565b6000918252602091829020600160069092020101546001600160a01b03168252600480549290910191859081106111b4576111b46132a3565b906000526020600020906006020160020180546111d09061315b565b80601f01602080910402602001604051908101604052809291908181526020018280546111fc9061315b565b80156112495780601f1061121e57610100808354040283529160200191611249565b820191906000526020600020905b81548152906001019060200180831161122c57829003601f168201915b5050505050815260200160048481548110611266576112666132a3565b906000526020600020906006020160030180546112829061315b565b80601f01602080910402602001604051908101604052809291908181526020018280546112ae9061315b565b80156112fb5780601f106112d0576101008083540402835291602001916112fb565b820191906000526020600020905b8154815290600101906020018083116112de57829003601f168201915b5050505050815260200160048481548110611318576113186132a3565b906000526020600020906006020160050180546113349061315b565b80601f01602080910402602001604051908101604052809291908181526020018280546113609061315b565b80156113ad5780601f10611382576101008083540402835291602001916113ad565b820191906000526020600020905b81548152906001019060200180831161139057829003601f168201915b505050918352505042602091820152825460018082018555600094855293829020835160069092020180546001600160a01b03199081166001600160a01b03938416178255928401519481018054909316949091169390931790556040810151909190600282019061141f90826131e3565b506060820151600382019061143490826131e3565b506080820151600482019061144990826131e3565b5060a0919091015160059091015560048054611467906001906132cf565b81548110611477576114776132a3565b906000526020600020906006020160048281548110611498576114986132a3565b60009182526020909120825460069092020180546001600160a01b039283166001600160a01b03199182161782556001808501549083018054919094169116179091556002808201906114ed90840182613317565b5060038181019061150090840182613317565b50600482810154908201805460ff191660ff909216151591909117905560058082019061152f90840182613317565b509050506004805480611544576115446132e8565b60008281526020812060066000199093019283020180546001600160a01b03199081168255600182018054909116905590611582600283018261293b565b61159060038301600061293b565b60048201805460ff191690556115aa60058301600061293b565b505090556115c5565b806115bd816132fe565b915050611064565b506001600160a01b0383166000908152600160205260409020600901546002906115ef90836133f2565b6115f99190613405565b6001600160a01b03841660008181526001602052604080822060090193909355915190913480156108fc02929091818181858888f19350505050158015611644573d6000803e3d6000fd5b50505050565b6060806060600060028054905067ffffffffffffffff81111561166f5761166f612d0d565b6040519080825280602002602001820160405280156116a257816020015b606081526020019060019003908161168d5790505b5060025490915060009067ffffffffffffffff8111156116c4576116c4612d0d565b6040519080825280602002602001820160405280156116f757816020015b60608152602001906001900390816116e25790505b50905060005b6002548110156118cf5760006002828154811061171c5761171c6132a3565b60009182526020808320909101546001600160a01b0316808352600190915260409091206002018054919250906117529061315b565b80601f016020809104026020016040519081016040528092919081815260200182805461177e9061315b565b80156117cb5780601f106117a0576101008083540402835291602001916117cb565b820191906000526020600020905b8154815290600101906020018083116117ae57829003601f168201915b50505050508483815181106117e2576117e26132a3565b602002602001018190525060016000826001600160a01b03166001600160a01b0316815260200190815260200160002060030180546118209061315b565b80601f016020809104026020016040519081016040528092919081815260200182805461184c9061315b565b80156118995780601f1061186e57610100808354040283529160200191611899565b820191906000526020600020905b81548152906001019060200180831161187c57829003601f168201915b50505050508383815181106118b0576118b06132a3565b60200260200101819052505080806118c7906132fe565b9150506116fd565b50600282828280548060200260200160405190810160405280929190818152602001828054801561192957602002820191906000526020600020905b81546001600160a01b0316815260019091019060200180831161190b575b505050505092509450945094505050909192565b6060806060806060806060806060600080600160008d6001600160a01b03166001600160a01b031681526020019081526020016000206040518061014001604052908160008201805461198f9061315b565b80601f01602080910402602001604051908101604052809291908181526020018280546119bb9061315b565b8015611a085780601f106119dd57610100808354040283529160200191611a08565b820191906000526020600020905b8154815290600101906020018083116119eb57829003601f168201915b50505050508152602001600182018054611a219061315b565b80601f0160208091040260200160405190810160405280929190818152602001828054611a4d9061315b565b8015611a9a5780601f10611a6f57610100808354040283529160200191611a9a565b820191906000526020600020905b815481529060010190602001808311611a7d57829003601f168201915b50505050508152602001600282018054611ab39061315b565b80601f0160208091040260200160405190810160405280929190818152602001828054611adf9061315b565b8015611b2c5780601f10611b0157610100808354040283529160200191611b2c565b820191906000526020600020905b815481529060010190602001808311611b0f57829003601f168201915b50505050508152602001600382018054611b459061315b565b80601f0160208091040260200160405190810160405280929190818152602001828054611b719061315b565b8015611bbe5780601f10611b9357610100808354040283529160200191611bbe565b820191906000526020600020905b815481529060010190602001808311611ba157829003601f168201915b50505050508152602001600482018054611bd79061315b565b80601f0160208091040260200160405190810160405280929190818152602001828054611c039061315b565b8015611c505780601f10611c2557610100808354040283529160200191611c50565b820191906000526020600020905b815481529060010190602001808311611c3357829003601f168201915b50505050508152602001600582018054611c699061315b565b80601f0160208091040260200160405190810160405280929190818152602001828054611c959061315b565b8015611ce25780601f10611cb757610100808354040283529160200191611ce2565b820191906000526020600020905b815481529060010190602001808311611cc557829003601f168201915b50505050508152602001600682018054611cfb9061315b565b80601f0160208091040260200160405190810160405280929190818152602001828054611d279061315b565b8015611d745780601f10611d4957610100808354040283529160200191611d74565b820191906000526020600020905b815481529060010190602001808311611d5757829003601f168201915b50505050508152602001600782018054611d8d9061315b565b80601f0160208091040260200160405190810160405280929190818152602001828054611db99061315b565b8015611e065780601f10611ddb57610100808354040283529160200191611e06565b820191906000526020600020905b815481529060010190602001808311611de957829003601f168201915b50505050508152602001600882018054611e1f9061315b565b80601f0160208091040260200160405190810160405280929190818152602001828054611e4b9061315b565b8015611e985780601f10611e6d57610100808354040283529160200191611e98565b820191906000526020600020905b815481529060010190602001808311611e7b57829003601f168201915b505050505081526020016009820154815250509050806000015181602001518260400151836060015184608001518560a001518660c001518760e001518861010001518961012001519a509a509a509a509a509a509a509a509a509a50509193959799509193959799565b60005b60045481101561105c57826001600160a01b031660048281548110611f2d57611f2d6132a3565b60009182526020909120600690910201546001600160a01b0316148015611f8b5750816001600160a01b031660048281548110611f6c57611f6c6132a3565b60009182526020909120600160069092020101546001600160a01b0316145b8015611fbe575060048181548110611fa557611fa56132a3565b600091825260209091206004600690920201015460ff16155b1561211f5760048054611fd3906001906132cf565b81548110611fe357611fe36132a3565b906000526020600020906006020160048281548110612004576120046132a3565b60009182526020909120825460069092020180546001600160a01b039283166001600160a01b031991821617825560018085015490830180549190941691161790915560028082019061205990840182613317565b5060038181019061206c90840182613317565b50600482810154908201805460ff191660ff909216151591909117905560058082019061209b90840182613317565b5090505060048054806120b0576120b06132e8565b60008281526020812060066000199093019283020180546001600160a01b031990811682556001820180549091169055906120ee600283018261293b565b6120fc60038301600061293b565b60048201805460ff1916905561211660058301600061293b565b50509055505050565b80612129816132fe565b915050611f06565b6001600160a01b0382166000908152602081905260409020600381015460029061215b90846133f2565b6121659190613405565b6003909101555050565b33600090815260016020526040902060020161218b82826131e3565b506000805b6002548110156121ec57336001600160a01b0316600282815481106121b7576121b76132a3565b6000918252602090912001546001600160a01b0316036121da57600191506121ec565b806121e4816132fe565b915050612190565b5080610bcf57600280546001810182556000919091527f405787fa12a823e0f2b7631cc41b3ba8828b3321ca811111fa75cd3aa3bb5ace0180546001600160a01b031916331790555050565b6040805160c0810182523381526001600160a01b03868116602083019081529282018681526060830186905260006080840181905260a08401869052600480546001810182559152835160069091027f8a35acfbc15ff81a39ae7d344fd709f28e8600b4aa8c65c6b64bfe7fe36bd19b810180549285166001600160a01b031993841617815595517f8a35acfbc15ff81a39ae7d344fd709f28e8600b4aa8c65c6b64bfe7fe36bd19c8201805491909516921691909117909255519192839290917f8a35acfbc15ff81a39ae7d344fd709f28e8600b4aa8c65c6b64bfe7fe36bd19d019061232690826131e3565b506060820151600382019061233b90826131e3565b50608082015160048201805460ff191691151591909117905560a0820151600582019061236890826131e3565b5050505050505050565b33600090815260016020526040902061238b89826131e3565b50336000908152600160208190526040909120016123a988826131e3565b503360009081526001602052604090206003016123c687826131e3565b503360009081526001602052604090206004016123e386826131e3565b5033600090815260016020526040902060050161240085826131e3565b5033600090815260016020526040902060060161241d84826131e3565b5033600090815260016020526040902060070161243a83826131e3565b5033600090815260016020526040902060080161245782826131e3565b5050336000908152600160205260409020600560099091015550505050505050565b6060806060600080600080336001600160a01b03166001600160a01b031681526020019081526020016000206040518060800160405290816000820180546124c09061315b565b80601f01602080910402602001604051908101604052809291908181526020018280546124ec9061315b565b80156125395780601f1061250e57610100808354040283529160200191612539565b820191906000526020600020905b81548152906001019060200180831161251c57829003601f168201915b505050505081526020016001820180546125529061315b565b80601f016020809104026020016040519081016040528092919081815260200182805461257e9061315b565b80156125cb5780601f106125a0576101008083540402835291602001916125cb565b820191906000526020600020905b8154815290600101906020018083116125ae57829003601f168201915b505050505081526020016002820180546125e49061315b565b80601f01602080910402602001604051908101604052809291908181526020018280546126109061315b565b801561265d5780601f106126325761010080835404028352916020019161265d565b820191906000526020600020905b81548152906001019060200180831161264057829003601f168201915b505050918352505060039190910154602091820152815190820151604083015160609093015191989097509195509350915050565b3360009081526020819052604090206126ab84826131e3565b503360009081526020819052604090206001016126c883826131e3565b503360009081526020819052604090206002016126e582826131e3565b505033600090815260208190526040902060056003909101555050565b60606003805480602002602001604051908101604052809291908181526020016000905b82821015610e155760008481526020908190206040805160c0810182526006860290920180546001600160a01b039081168452600182015416938301939093526002830180549293929184019161277c9061315b565b80601f01602080910402602001604051908101604052809291908181526020018280546127a89061315b565b80156127f55780601f106127ca576101008083540402835291602001916127f5565b820191906000526020600020905b8154815290600101906020018083116127d857829003601f168201915b5050505050815260200160038201805461280e9061315b565b80601f016020809104026020016040519081016040528092919081815260200182805461283a9061315b565b80156128875780601f1061285c57610100808354040283529160200191612887565b820191906000526020600020905b81548152906001019060200180831161286a57829003601f168201915b505050505081526020016004820180546128a09061315b565b80601f01602080910402602001604051908101604052809291908181526020018280546128cc9061315b565b80156129195780601f106128ee57610100808354040283529160200191612919565b820191906000526020600020905b8154815290600101906020018083116128fc57829003601f168201915b5050505050815260200160058201548152505081526020019060010190612726565b5080546129479061315b565b6000825580601f10612957575050565b601f01602090049060005260206000209081019061044f91905b808211156129855760008155600101612971565b5090565b6000815180845260005b818110156129af57602081850181015186830182015201612993565b506000602082860101526020601f19601f83011685010191505092915050565b60006101408083526129e38184018e612989565b905082810360208401526129f7818d612989565b90508281036040840152612a0b818c612989565b90508281036060840152612a1f818b612989565b90508281036080840152612a33818a612989565b905082810360a0840152612a478189612989565b905082810360c0840152612a5b8188612989565b905082810360e0840152612a6f8187612989565b9050828103610100840152612a848186612989565b915050826101208301529b9a5050505050505050505050565b60006020808301818452808551808352604092508286019150828160051b87010184880160005b83811015612b6157888303603f19018552815180516001600160a01b0390811685528882015116888501528681015160c088860181905290612b0882870182612989565b91505060608083015186830382880152612b228382612989565b925050506080808301511515818701525060a08083015192508582038187015250612b4d8183612989565b968901969450505090860190600101612ac4565b509098975050505050505050565b80356001600160a01b0381168114612b8657600080fd5b919050565b60008060408385031215612b9e57600080fd5b612ba783612b6f565b9150612bb560208401612b6f565b90509250929050565b600080600060608486031215612bd357600080fd5b612bdc84612b6f565b9250612bea60208501612b6f565b9150604084013590509250925092565b6000815180845260208085019450848260051b860182860160005b85811015612c3f578383038952612c2d838351612989565b98850198925090840190600101612c15565b5090979650505050505050565b606080825284519082018190526000906020906080840190828801845b82811015612c8e5781516001600160a01b031684529284019290840190600101612c69565b50505083810382850152612ca28187612bfa565b9150508281036040840152612cb78185612bfa565b9695505050505050565b600060208284031215612cd357600080fd5b612cdc82612b6f565b9392505050565b60008060408385031215612cf657600080fd5b612cff83612b6f565b946020939093013593505050565b634e487b7160e01b600052604160045260246000fd5b600082601f830112612d3457600080fd5b813567ffffffffffffffff80821115612d4f57612d4f612d0d565b604051601f8301601f19908116603f01168101908282118183101715612d7757612d77612d0d565b81604052838152866020858801011115612d9057600080fd5b836020870160208301376000602085830101528094505050505092915050565b600060208284031215612dc257600080fd5b813567ffffffffffffffff811115612dd957600080fd5b612de584828501612d23565b949350505050565b60008060008060808587031215612e0357600080fd5b612e0c85612b6f565b9350602085013567ffffffffffffffff80821115612e2957600080fd5b612e3588838901612d23565b94506040870135915080821115612e4b57600080fd5b612e5788838901612d23565b93506060870135915080821115612e6d57600080fd5b50612e7a87828801612d23565b91505092959194509250565b600080600080600080600080610100898b031215612ea357600080fd5b883567ffffffffffffffff80821115612ebb57600080fd5b612ec78c838d01612d23565b995060208b0135915080821115612edd57600080fd5b612ee98c838d01612d23565b985060408b0135915080821115612eff57600080fd5b612f0b8c838d01612d23565b975060608b0135915080821115612f2157600080fd5b612f2d8c838d01612d23565b965060808b0135915080821115612f4357600080fd5b612f4f8c838d01612d23565b955060a08b0135915080821115612f6557600080fd5b612f718c838d01612d23565b945060c08b0135915080821115612f8757600080fd5b612f938c838d01612d23565b935060e08b0135915080821115612fa957600080fd5b50612fb68b828c01612d23565b9150509295985092959890939650565b608081526000612fd96080830187612989565b8281036020840152612feb8187612989565b90508281036040840152612fff8186612989565b91505082606083015295945050505050565b60008060006060848603121561302657600080fd5b833567ffffffffffffffff8082111561303e57600080fd5b61304a87838801612d23565b9450602086013591508082111561306057600080fd5b61306c87838801612d23565b9350604086013591508082111561308257600080fd5b5061308f86828701612d23565b9150509250925092565b60006020808301818452808551808352604092508286019150828160051b87010184880160005b83811015612b6157888303603f19018552815180516001600160a01b0390811685528882015116888501528681015160c08886018190529061310482870182612989565b9150506060808301518683038288015261311e8382612989565b92505050608080830151868303828801526131398382612989565b60a09485015197909401969096525050948701949250908601906001016130c0565b600181811c9082168061316f57607f821691505b60208210810361318f57634e487b7160e01b600052602260045260246000fd5b50919050565b601f82111561105c57600081815260208120601f850160051c810160208610156131bc5750805b601f850160051c820191505b818110156131db578281556001016131c8565b505050505050565b815167ffffffffffffffff8111156131fd576131fd612d0d565b6132118161320b845461315b565b84613195565b602080601f831160018114613246576000841561322e5750858301515b600019600386901b1c1916600185901b1785556131db565b600085815260208120601f198616915b8281101561327557888601518255948401946001909101908401613256565b50858210156132935787850151600019600388901b60f8161c191681555b5050505050600190811b01905550565b634e487b7160e01b600052603260045260246000fd5b634e487b7160e01b600052601160045260246000fd5b818103818111156132e2576132e26132b9565b92915050565b634e487b7160e01b600052603160045260246000fd5b600060018201613310576133106132b9565b5060010190565b818103613322575050565b61332c825461315b565b67ffffffffffffffff81111561334457613344612d0d565b6133528161320b845461315b565b6000601f821160018114613386576000831561336e5750848201545b600019600385901b1c1916600184901b1784556133eb565b600085815260209020601f19841690600086815260209020845b838110156133c057828601548255600195860195909101906020016133a0565b50858310156133de5781850154600019600388901b60f8161c191681555b50505060018360011b0184555b5050505050565b808201808211156132e2576132e26132b9565b60008261342257634e487b7160e01b600052601260045260246000fd5b50049056fea2646970667358221220fc31ca2817a44ec1d661bba4374fe590293367b8fa3a32be02432d7c86ca074764736f6c63430008110033",
  "linkReferences": {},
  "deployedLinkReferences": {}
}