{
  "_format": "hh-sol-artifact-1",
  "contractName": "UserDetails",
  "sourceName": "contracts/UserDetails.sol",
  "abi": [
    {
      "inputs": [
        {
          "internalType": "address",
          "name": "_userAddress",
          "type": "address"
        },
        {
          "internalType": "address",
          "name": "_driverAddress",
          "type": "address"
        }
      ],
      "name": "acceptRide",
      "outputs": [],
      "stateMutability": "nonpayable",
      "type": "function"
    },
    {
      "inputs": [
        {
          "internalType": "address",
          "name": "_driverAddress",
          "type": "address"
        },
        {
          "internalType": "string",
          "name": "_pickup",
          "type": "string"
        },
        {
          "internalType": "string",
          "name": "_dropoff",
          "type": "string"
        }
      ],
      "name": "addData",
      "outputs": [],
      "stateMutability": "nonpayable",
      "type": "function"
    },
    {
      "inputs": [],
      "name": "deleteDriverLocation",
      "outputs": [],
      "stateMutability": "nonpayable",
      "type": "function"
    },
    {
      "inputs": [],
      "name": "getAllDriverDetails",
      "outputs": [
        {
          "internalType": "address[]",
          "name": "",
          "type": "address[]"
        },
        {
          "internalType": "string[]",
          "name": "",
          "type": "string[]"
        },
        {
          "internalType": "string[]",
          "name": "",
          "type": "string[]"
        }
      ],
      "stateMutability": "view",
      "type": "function"
    },
    {
      "inputs": [],
      "name": "getData",
      "outputs": [
        {
          "components": [
            {
              "internalType": "address",
              "name": "userAddress",
              "type": "address"
            },
            {
              "internalType": "address",
              "name": "driverAddress",
              "type": "address"
            },
            {
              "internalType": "string",
              "name": "pickup",
              "type": "string"
            },
            {
              "internalType": "string",
              "name": "dropoff",
              "type": "string"
            },
            {
              "internalType": "bool",
              "name": "accept",
              "type": "bool"
            },
            {
              "internalType": "bool",
              "name": "reject",
              "type": "bool"
            }
          ],
          "internalType": "struct UserDetails.RideSelect[]",
          "name": "",
          "type": "tuple[]"
        }
      ],
      "stateMutability": "view",
      "type": "function"
    },
    {
      "inputs": [
        {
          "internalType": "address payable",
          "name": "_driverAddress",
          "type": "address"
        },
        {
          "internalType": "uint256",
          "name": "_amountToPay",
          "type": "uint256"
        }
      ],
      "name": "payDriver",
      "outputs": [],
      "stateMutability": "payable",
      "type": "function"
    },
    {
      "inputs": [
        {
          "internalType": "address",
          "name": "_userAddress",
          "type": "address"
        },
        {
          "internalType": "address",
          "name": "_driverAddress",
          "type": "address"
        }
      ],
      "name": "rejectRide",
      "outputs": [],
      "stateMutability": "nonpayable",
      "type": "function"
    },
    {
      "inputs": [],
      "name": "removeData",
      "outputs": [],
      "stateMutability": "nonpayable",
      "type": "function"
    },
    {
      "inputs": [],
      "name": "retrieveDriverInformation",
      "outputs": [
        {
          "internalType": "string",
          "name": "",
          "type": "string"
        },
        {
          "internalType": "string",
          "name": "",
          "type": "string"
        },
        {
          "internalType": "string",
          "name": "",
          "type": "string"
        },
        {
          "internalType": "string",
          "name": "",
          "type": "string"
        },
        {
          "internalType": "string",
          "name": "",
          "type": "string"
        },
        {
          "internalType": "string",
          "name": "",
          "type": "string"
        },
        {
          "internalType": "string",
          "name": "",
          "type": "string"
        },
        {
          "internalType": "string",
          "name": "",
          "type": "string"
        },
        {
          "internalType": "string",
          "name": "",
          "type": "string"
        }
      ],
      "stateMutability": "view",
      "type": "function"
    },
    {
      "inputs": [
        {
          "internalType": "address",
          "name": "driverAddress",
          "type": "address"
        }
      ],
      "name": "retrieveSpecificDriver",
      "outputs": [
        {
          "internalType": "string",
          "name": "",
          "type": "string"
        },
        {
          "internalType": "string",
          "name": "",
          "type": "string"
        },
        {
          "internalType": "string",
          "name": "",
          "type": "string"
        },
        {
          "internalType": "string",
          "name": "",
          "type": "string"
        },
        {
          "internalType": "string",
          "name": "",
          "type": "string"
        },
        {
          "internalType": "string",
          "name": "",
          "type": "string"
        },
        {
          "internalType": "string",
          "name": "",
          "type": "string"
        },
        {
          "internalType": "string",
          "name": "",
          "type": "string"
        },
        {
          "internalType": "string",
          "name": "",
          "type": "string"
        }
      ],
      "stateMutability": "view",
      "type": "function"
    },
    {
      "inputs": [],
      "name": "retrieveUserInformation",
      "outputs": [
        {
          "internalType": "string",
          "name": "",
          "type": "string"
        },
        {
          "internalType": "string",
          "name": "",
          "type": "string"
        },
        {
          "internalType": "string",
          "name": "",
          "type": "string"
        }
      ],
      "stateMutability": "view",
      "type": "function"
    },
    {
      "inputs": [
        {
          "internalType": "string",
          "name": "_name",
          "type": "string"
        },
        {
          "internalType": "string",
          "name": "_phoneNumber",
          "type": "string"
        },
        {
          "internalType": "string",
          "name": "_model",
          "type": "string"
        },
        {
          "internalType": "string",
          "name": "_vehicleNumber",
          "type": "string"
        },
        {
          "internalType": "string",
          "name": "_rcBook",
          "type": "string"
        },
        {
          "internalType": "string",
          "name": "_license",
          "type": "string"
        },
        {
          "internalType": "string",
          "name": "_vehicleName",
          "type": "string"
        },
        {
          "internalType": "string",
          "name": "_aadhar",
          "type": "string"
        }
      ],
      "name": "setDriverInformation",
      "outputs": [],
      "stateMutability": "nonpayable",
      "type": "function"
    },
    {
      "inputs": [
        {
          "internalType": "string",
          "name": "_location",
          "type": "string"
        }
      ],
      "name": "setDriverLocation",
      "outputs": [],
      "stateMutability": "nonpayable",
      "type": "function"
    },
    {
      "inputs": [
        {
          "internalType": "string",
          "name": "_name",
          "type": "string"
        },
        {
          "internalType": "string",
          "name": "_phoneNumber",
          "type": "string"
        },
        {
          "internalType": "string",
          "name": "_aadhar",
          "type": "string"
        }
      ],
      "name": "setUserInformation",
      "outputs": [],
      "stateMutability": "nonpayable",
      "type": "function"
    }
  ],
  "bytecode": "0x608060405234801561001057600080fd5b50612733806100206000396000f3fe6080604052600436106100dd5760003560e01c80636a19ff6a1161007f578063923f94cd11610059578063923f94cd1461021a578063d0927e931461023a578063e0e6a6911461025a578063e232ee2e1461027e57600080fd5b80636a19ff6a146101c75780637731d02e146101da57806378020090146101fa57600080fd5b80633bc5de30116100bb5780633bc5de30146101415780633d784d1b14610163578063536f4a0414610183578063612b5d30146101a757600080fd5b80630ca11da8146100e25780631066b782146100f95780631be9d1ec1461012c575b600080fd5b3480156100ee57600080fd5b506100f761029e565b005b34801561010557600080fd5b5061010e6103fd565b6040516101239998979695949392919061255e565b60405180910390f35b34801561013857600080fd5b506100f76109ae565b34801561014d57600080fd5b50610156610b88565b6040516101239190612463565b34801561016f57600080fd5b506100f761017e3660046120d4565b610d57565b34801561018f57600080fd5b50610198610e37565b604051610123939291906123ee565b3480156101b357600080fd5b5061010e6101c2366004612084565b61112a565b6100f76101d53660046120a8565b6116dd565b3480156101e657600080fd5b506100f76101f536600461210d565b61175d565b34801561020657600080fd5b506100f76102153660046120d4565b6118a7565b34801561022657600080fd5b506100f7610235366004612183565b611988565b34801561024657600080fd5b506100f761025536600461220f565b611a5c565b34801561026657600080fd5b5061026f611be8565b60405161012393929190612525565b34801561028a57600080fd5b506100f76102993660046121c0565b611def565b33600090815260016020526040812060020180546102bb9061263a565b905011156102f3576040805160208082018084526000808452338152600190925292902090516102f19260029092019190611ead565b505b60005b6002548110156103fa57336001600160a01b03166002828154811061031d5761031d6126bc565b6000918252602090912001546001600160a01b031614156103e8576002805461034890600190612623565b81548110610358576103586126bc565b600091825260209091200154600280546001600160a01b039092169183908110610384576103846126bc565b9060005260206000200160006101000a8154816001600160a01b0302191690836001600160a01b0316021790555060028054806103c3576103c36126a6565b600082815260209020810160001990810180546001600160a01b031916905501905550565b806103f281612675565b9150506102f6565b50565b6060806060806060806060806060600060016000336001600160a01b03166001600160a01b031681526020019081526020016000206040518061012001604052908160008201805461044e9061263a565b80601f016020809104026020016040519081016040528092919081815260200182805461047a9061263a565b80156104c75780601f1061049c576101008083540402835291602001916104c7565b820191906000526020600020905b8154815290600101906020018083116104aa57829003601f168201915b505050505081526020016001820180546104e09061263a565b80601f016020809104026020016040519081016040528092919081815260200182805461050c9061263a565b80156105595780601f1061052e57610100808354040283529160200191610559565b820191906000526020600020905b81548152906001019060200180831161053c57829003601f168201915b505050505081526020016002820180546105729061263a565b80601f016020809104026020016040519081016040528092919081815260200182805461059e9061263a565b80156105eb5780601f106105c0576101008083540402835291602001916105eb565b820191906000526020600020905b8154815290600101906020018083116105ce57829003601f168201915b505050505081526020016003820180546106049061263a565b80601f01602080910402602001604051908101604052809291908181526020018280546106309061263a565b801561067d5780601f106106525761010080835404028352916020019161067d565b820191906000526020600020905b81548152906001019060200180831161066057829003601f168201915b505050505081526020016004820180546106969061263a565b80601f01602080910402602001604051908101604052809291908181526020018280546106c29061263a565b801561070f5780601f106106e45761010080835404028352916020019161070f565b820191906000526020600020905b8154815290600101906020018083116106f257829003601f168201915b505050505081526020016005820180546107289061263a565b80601f01602080910402602001604051908101604052809291908181526020018280546107549061263a565b80156107a15780601f10610776576101008083540402835291602001916107a1565b820191906000526020600020905b81548152906001019060200180831161078457829003601f168201915b505050505081526020016006820180546107ba9061263a565b80601f01602080910402602001604051908101604052809291908181526020018280546107e69061263a565b80156108335780601f1061080857610100808354040283529160200191610833565b820191906000526020600020905b81548152906001019060200180831161081657829003601f168201915b5050505050815260200160078201805461084c9061263a565b80601f01602080910402602001604051908101604052809291908181526020018280546108789061263a565b80156108c55780601f1061089a576101008083540402835291602001916108c5565b820191906000526020600020905b8154815290600101906020018083116108a857829003601f168201915b505050505081526020016008820180546108de9061263a565b80601f016020809104026020016040519081016040528092919081815260200182805461090a9061263a565b80156109575780601f1061092c57610100808354040283529160200191610957565b820191906000526020600020905b81548152906001019060200180831161093a57829003601f168201915b5050505050815250509050806000015181602001518260400151836060015184608001518560a001518660c001518760e0015188610100015199509950995099509950995099509950995050909192939495969798565b3360005b600354811015610b8457816001600160a01b0316600382815481106109d9576109d96126bc565b60009182526020909120600590910201546001600160a01b03161415610b725760038054610a0990600190612623565b81548110610a1957610a196126bc565b906000526020600020906005020160038281548110610a3a57610a3a6126bc565b60009182526020909120825460059092020180546001600160a01b039283166001600160a01b03199182161782556001808501549083018054919094169116179091556002808301805491830191610a919061263a565b610a9c929190611f31565b506003820181600301908054610ab19061263a565b610abc929190611f31565b506004918201805491909201805460ff19811660ff93841615159081178355935461ffff1990911661ff0019909416939093176101009384900490921615159092021790556003805480610b1257610b126126a6565b60008281526020812060056000199093019283020180546001600160a01b03199081168255600182018054909116905590610b506002830182611fac565b610b5e600383016000611fac565b50600401805461ffff1916905590556109b2565b80610b7c81612675565b9150506109b2565b5050565b60606003805480602002602001604051908101604052809291908181526020016000905b82821015610d4e5760008481526020908190206040805160c0810182526005860290920180546001600160a01b0390811684526001820154169383019390935260028301805492939291840191610c029061263a565b80601f0160208091040260200160405190810160405280929190818152602001828054610c2e9061263a565b8015610c7b5780601f10610c5057610100808354040283529160200191610c7b565b820191906000526020600020905b815481529060010190602001808311610c5e57829003601f168201915b50505050508152602001600382018054610c949061263a565b80601f0160208091040260200160405190810160405280929190818152602001828054610cc09061263a565b8015610d0d5780601f10610ce257610100808354040283529160200191610d0d565b820191906000526020600020905b815481529060010190602001808311610cf057829003601f168201915b50505091835250506004919091015460ff80821615156020808501919091526101009092041615156040909201919091529082526001929092019101610bac565b50505050905090565b60005b600354811015610e3257826001600160a01b031660038281548110610d8157610d816126bc565b60009182526020909120600590910201546001600160a01b0316148015610ddf5750816001600160a01b031660038281548110610dc057610dc06126bc565b60009182526020909120600160059092020101546001600160a01b0316145b15610e2057600160038281548110610df957610df96126bc565b60009182526020909120600590910201600401805460ff1916911515919091179055505050565b80610e2a81612675565b915050610d5a565b505050565b6060806060600060028054905067ffffffffffffffff811115610e5c57610e5c6126d2565b604051908082528060200260200182016040528015610e8f57816020015b6060815260200190600190039081610e7a5790505b5060025490915060009067ffffffffffffffff811115610eb157610eb16126d2565b604051908082528060200260200182016040528015610ee457816020015b6060815260200190600190039081610ecf5790505b50905060005b6002548110156110bc57600060028281548110610f0957610f096126bc565b60009182526020808320909101546001600160a01b031680835260019091526040909120600201805491925090610f3f9061263a565b80601f0160208091040260200160405190810160405280929190818152602001828054610f6b9061263a565b8015610fb85780601f10610f8d57610100808354040283529160200191610fb8565b820191906000526020600020905b815481529060010190602001808311610f9b57829003601f168201915b5050505050848381518110610fcf57610fcf6126bc565b602002602001018190525060016000826001600160a01b03166001600160a01b03168152602001908152602001600020600301805461100d9061263a565b80601f01602080910402602001604051908101604052809291908181526020018280546110399061263a565b80156110865780601f1061105b57610100808354040283529160200191611086565b820191906000526020600020905b81548152906001019060200180831161106957829003601f168201915b505050505083838151811061109d5761109d6126bc565b60200260200101819052505080806110b490612675565b915050610eea565b50600282828280548060200260200160405190810160405280929190818152602001828054801561111657602002820191906000526020600020905b81546001600160a01b031681526001909101906020018083116110f8575b505050505092509450945094505050909192565b60608060608060608060608060606000600160008c6001600160a01b03166001600160a01b031681526020019081526020016000206040518061012001604052908160008201805461117b9061263a565b80601f01602080910402602001604051908101604052809291908181526020018280546111a79061263a565b80156111f45780601f106111c9576101008083540402835291602001916111f4565b820191906000526020600020905b8154815290600101906020018083116111d757829003601f168201915b5050505050815260200160018201805461120d9061263a565b80601f01602080910402602001604051908101604052809291908181526020018280546112399061263a565b80156112865780601f1061125b57610100808354040283529160200191611286565b820191906000526020600020905b81548152906001019060200180831161126957829003601f168201915b5050505050815260200160028201805461129f9061263a565b80601f01602080910402602001604051908101604052809291908181526020018280546112cb9061263a565b80156113185780601f106112ed57610100808354040283529160200191611318565b820191906000526020600020905b8154815290600101906020018083116112fb57829003601f168201915b505050505081526020016003820180546113319061263a565b80601f016020809104026020016040519081016040528092919081815260200182805461135d9061263a565b80156113aa5780601f1061137f576101008083540402835291602001916113aa565b820191906000526020600020905b81548152906001019060200180831161138d57829003601f168201915b505050505081526020016004820180546113c39061263a565b80601f01602080910402602001604051908101604052809291908181526020018280546113ef9061263a565b801561143c5780601f106114115761010080835404028352916020019161143c565b820191906000526020600020905b81548152906001019060200180831161141f57829003601f168201915b505050505081526020016005820180546114559061263a565b80601f01602080910402602001604051908101604052809291908181526020018280546114819061263a565b80156114ce5780601f106114a3576101008083540402835291602001916114ce565b820191906000526020600020905b8154815290600101906020018083116114b157829003601f168201915b505050505081526020016006820180546114e79061263a565b80601f01602080910402602001604051908101604052809291908181526020018280546115139061263a565b80156115605780601f1061153557610100808354040283529160200191611560565b820191906000526020600020905b81548152906001019060200180831161154357829003601f168201915b505050505081526020016007820180546115799061263a565b80601f01602080910402602001604051908101604052809291908181526020018280546115a59061263a565b80156115f25780601f106115c7576101008083540402835291602001916115f2565b820191906000526020600020905b8154815290600101906020018083116115d557829003601f168201915b5050505050815260200160088201805461160b9061263a565b80601f01602080910402602001604051908101604052809291908181526020018280546116379061263a565b80156116845780601f1061165957610100808354040283529160200191611684565b820191906000526020600020905b81548152906001019060200180831161166757829003601f168201915b5050505050815250509050806000015181602001518260400151836060015184608001518560a001518660c001518760e00151886101000151995099509950995099509950995099509950509193959799909294969850565b803410156117275760405162461bcd60e51b8152602060048201526012602482015271496e73756666696369656e742066756e647360701b60448201526064015b60405180910390fd5b6040516001600160a01b0383169082156108fc029083906000818181858888f19350505050158015610e32573d6000803e3d6000fd5b6040805160c0810182523381526001600160a01b0385811660208084019182529383018681526060840186905260006080850181905260a08501819052600380546001810182559152845160059091027fc2575a0e9e593c00f959f8c92f12db2869c3395a3b0502d05e2516446f71f85b810180549286166001600160a01b031993841617815593517fc2575a0e9e593c00f959f8c92f12db2869c3395a3b0502d05e2516446f71f85c8201805491909616921691909117909355518051939485949293611853937fc2575a0e9e593c00f959f8c92f12db2869c3395a3b0502d05e2516446f71f85d9091019290910190611ead565b506060820151805161186f916003840191602090910190611ead565b5060808201516004909101805460a09093015115156101000261ff00199215159290921661ffff199093169290921717905550505050565b60005b600354811015610e3257826001600160a01b0316600382815481106118d1576118d16126bc565b60009182526020909120600590910201546001600160a01b031614801561192f5750816001600160a01b031660038281548110611910576119106126bc565b60009182526020909120600160059092020101546001600160a01b0316145b1561197657600160038281548110611949576119496126bc565b906000526020600020906005020160040160016101000a81548160ff021916908315150217905550505050565b8061198081612675565b9150506118aa565b33600090815260016020908152604090912082516119ae92600290920191840190611ead565b506000805b600254811015611a1057336001600160a01b0316600282815481106119da576119da6126bc565b6000918252602090912001546001600160a01b031614156119fe5760019150611a10565b80611a0881612675565b9150506119b3565b5080610b8457600280546001810182556000919091527f405787fa12a823e0f2b7631cc41b3ba8828b3321ca811111fa75cd3aa3bb5ace0180546001600160a01b031916331790555050565b6706f05b59d3b2000033311015611aac5760405162461bcd60e51b8152602060048201526014602482015273496e73756666696369656e742062616c616e636560601b604482015260640161171e565b3360009081526001602090815260409091208951611acc928b0190611ead565b503360009081526001602081815260409092208951611af3939190920191908a0190611ead565b503360009081526001602090815260409091208751611b1a92600390920191890190611ead565b503360009081526001602090815260409091208651611b4192600490920191880190611ead565b503360009081526001602090815260409091208551611b6892600590920191870190611ead565b503360009081526001602090815260409091208451611b8f92600690920191860190611ead565b503360009081526001602090815260409091208351611bb692600790920191850190611ead565b503360009081526001602090815260409091208251611bdd92600890920191840190611ead565b505050505050505050565b60608060606000806000336001600160a01b03166001600160a01b03168152602001908152602001600020604051806060016040529081600082018054611c2e9061263a565b80601f0160208091040260200160405190810160405280929190818152602001828054611c5a9061263a565b8015611ca75780601f10611c7c57610100808354040283529160200191611ca7565b820191906000526020600020905b815481529060010190602001808311611c8a57829003601f168201915b50505050508152602001600182018054611cc09061263a565b80601f0160208091040260200160405190810160405280929190818152602001828054611cec9061263a565b8015611d395780601f10611d0e57610100808354040283529160200191611d39565b820191906000526020600020905b815481529060010190602001808311611d1c57829003601f168201915b50505050508152602001600282018054611d529061263a565b80601f0160208091040260200160405190810160405280929190818152602001828054611d7e9061263a565b8015611dcb5780601f10611da057610100808354040283529160200191611dcb565b820191906000526020600020905b815481529060010190602001808311611dae57829003601f168201915b50505091909252505081516020830151604090930151909792965094509092505050565b6706f05b59d3b2000033311015611e3f5760405162461bcd60e51b8152602060048201526014602482015273496e73756666696369656e742062616c616e636560601b604482015260640161171e565b336000908152602081815260409091208451611e5d92860190611ead565b50336000908152602081815260409091208351611e8292600190920191850190611ead565b50336000908152602081815260409091208251611ea792600290920191840190611ead565b50505050565b828054611eb99061263a565b90600052602060002090601f016020900481019282611edb5760008555611f21565b82601f10611ef457805160ff1916838001178555611f21565b82800160010185558215611f21579182015b82811115611f21578251825591602001919060010190611f06565b50611f2d929150611fe2565b5090565b828054611f3d9061263a565b90600052602060002090601f016020900481019282611f5f5760008555611f21565b82601f10611f705780548555611f21565b82800160010185558215611f2157600052602060002091601f016020900482015b82811115611f21578254825591600101919060010190611f91565b508054611fb89061263a565b6000825580601f10611fc8575050565b601f0160209004906000526020600020908101906103fa91905b5b80821115611f2d5760008155600101611fe3565b600082601f83011261200857600080fd5b813567ffffffffffffffff80821115612023576120236126d2565b604051601f8301601f19908116603f0116810190828211818310171561204b5761204b6126d2565b8160405283815286602085880101111561206457600080fd5b836020870160208301376000602085830101528094505050505092915050565b60006020828403121561209657600080fd5b81356120a1816126e8565b9392505050565b600080604083850312156120bb57600080fd5b82356120c6816126e8565b946020939093013593505050565b600080604083850312156120e757600080fd5b82356120f2816126e8565b91506020830135612102816126e8565b809150509250929050565b60008060006060848603121561212257600080fd5b833561212d816126e8565b9250602084013567ffffffffffffffff8082111561214a57600080fd5b61215687838801611ff7565b9350604086013591508082111561216c57600080fd5b5061217986828701611ff7565b9150509250925092565b60006020828403121561219557600080fd5b813567ffffffffffffffff8111156121ac57600080fd5b6121b884828501611ff7565b949350505050565b6000806000606084860312156121d557600080fd5b833567ffffffffffffffff808211156121ed57600080fd5b6121f987838801611ff7565b9450602086013591508082111561214a57600080fd5b600080600080600080600080610100898b03121561222c57600080fd5b883567ffffffffffffffff8082111561224457600080fd5b6122508c838d01611ff7565b995060208b013591508082111561226657600080fd5b6122728c838d01611ff7565b985060408b013591508082111561228857600080fd5b6122948c838d01611ff7565b975060608b01359150808211156122aa57600080fd5b6122b68c838d01611ff7565b965060808b01359150808211156122cc57600080fd5b6122d88c838d01611ff7565b955060a08b01359150808211156122ee57600080fd5b6122fa8c838d01611ff7565b945060c08b013591508082111561231057600080fd5b61231c8c838d01611ff7565b935060e08b013591508082111561233257600080fd5b5061233f8b828c01611ff7565b9150509295985092959890939650565b6000815180845260208085019450848260051b860182860160005b858110156123945783830389526123828383516123a1565b9885019892509084019060010161236a565b5090979650505050505050565b6000815180845260005b818110156123c7576020818501810151868301820152016123ab565b818111156123d9576000602083870101525b50601f01601f19169290920160200192915050565b606080825284519082018190526000906020906080840190828801845b828110156124305781516001600160a01b03168452928401929084019060010161240b565b50505083810382850152612444818761234f565b9150508281036040840152612459818561234f565b9695505050505050565b60006020808301818452808551808352604092508286019150828160051b87010184880160005b8381101561251757888303603f19018552815180516001600160a01b0390811685528882015116888501528681015160c0888601819052906124ce828701826123a1565b915050606080830151868303828801526124e883826123a1565b60808581015115159089015260a09485015115159490970193909352505050938601939086019060010161248a565b509098975050505050505050565b60608152600061253860608301866123a1565b828103602084015261254a81866123a1565b9050828103604084015261245981856123a1565b60006101208083526125728184018d6123a1565b90508281036020840152612586818c6123a1565b9050828103604084015261259a818b6123a1565b905082810360608401526125ae818a6123a1565b905082810360808401526125c281896123a1565b905082810360a08401526125d681886123a1565b905082810360c08401526125ea81876123a1565b905082810360e08401526125fe81866123a1565b905082810361010084015261261381856123a1565b9c9b505050505050505050505050565b60008282101561263557612635612690565b500390565b600181811c9082168061264e57607f821691505b6020821081141561266f57634e487b7160e01b600052602260045260246000fd5b50919050565b600060001982141561268957612689612690565b5060010190565b634e487b7160e01b600052601160045260246000fd5b634e487b7160e01b600052603160045260246000fd5b634e487b7160e01b600052603260045260246000fd5b634e487b7160e01b600052604160045260246000fd5b6001600160a01b03811681146103fa57600080fdfea2646970667358221220f4a01bbf949f08f6a26d4b5c887ce544a1536a0fcd97ac045d7cb617338c05b264736f6c63430008070033",
  "linkReferences": {},
  "deployedLinkReferences": {}
}