{
  "_format": "hh-sol-artifact-1",
  "contractName": "UserDetails",
  "sourceName": "contracts/UserDetails.sol",
  "abi": [
    {
      "inputs": [],
      "name": "deleteDriverLocation",
      "outputs": [],
      "stateMutability": "nonpayable",
      "type": "function"
    },
    {
      "inputs": [],
      "name": "getAllDriverDetails",
      "outputs": [
        {
          "internalType": "address[]",
          "name": "",
          "type": "address[]"
        },
        {
          "internalType": "string[]",
          "name": "",
          "type": "string[]"
        },
        {
          "internalType": "string[]",
          "name": "",
          "type": "string[]"
        }
      ],
      "stateMutability": "view",
      "type": "function"
    },
    {
      "inputs": [],
      "name": "retrieveDriverInformation",
      "outputs": [
        {
          "internalType": "string",
          "name": "",
          "type": "string"
        },
        {
          "internalType": "string",
          "name": "",
          "type": "string"
        },
        {
          "internalType": "string",
          "name": "",
          "type": "string"
        },
        {
          "internalType": "string",
          "name": "",
          "type": "string"
        },
        {
          "internalType": "string",
          "name": "",
          "type": "string"
        },
        {
          "internalType": "string",
          "name": "",
          "type": "string"
        },
        {
          "internalType": "string",
          "name": "",
          "type": "string"
        },
        {
          "internalType": "string",
          "name": "",
          "type": "string"
        },
        {
          "internalType": "string",
          "name": "",
          "type": "string"
        }
      ],
      "stateMutability": "view",
      "type": "function"
    },
    {
      "inputs": [
        {
          "internalType": "address",
          "name": "driverAddress",
          "type": "address"
        }
      ],
      "name": "retrieveSpecificDriver",
      "outputs": [
        {
          "internalType": "string",
          "name": "",
          "type": "string"
        },
        {
          "internalType": "string",
          "name": "",
          "type": "string"
        },
        {
          "internalType": "string",
          "name": "",
          "type": "string"
        },
        {
          "internalType": "string",
          "name": "",
          "type": "string"
        },
        {
          "internalType": "string",
          "name": "",
          "type": "string"
        },
        {
          "internalType": "string",
          "name": "",
          "type": "string"
        },
        {
          "internalType": "string",
          "name": "",
          "type": "string"
        },
        {
          "internalType": "string",
          "name": "",
          "type": "string"
        },
        {
          "internalType": "string",
          "name": "",
          "type": "string"
        }
      ],
      "stateMutability": "view",
      "type": "function"
    },
    {
      "inputs": [],
      "name": "retrieveUserInformation",
      "outputs": [
        {
          "internalType": "string",
          "name": "",
          "type": "string"
        },
        {
          "internalType": "string",
          "name": "",
          "type": "string"
        },
        {
          "internalType": "string",
          "name": "",
          "type": "string"
        }
      ],
      "stateMutability": "view",
      "type": "function"
    },
    {
      "inputs": [
        {
          "internalType": "string",
          "name": "_name",
          "type": "string"
        },
        {
          "internalType": "string",
          "name": "_phoneNumber",
          "type": "string"
        },
        {
          "internalType": "string",
          "name": "_model",
          "type": "string"
        },
        {
          "internalType": "string",
          "name": "_vehicleNumber",
          "type": "string"
        },
        {
          "internalType": "string",
          "name": "_rcBook",
          "type": "string"
        },
        {
          "internalType": "string",
          "name": "_license",
          "type": "string"
        },
        {
          "internalType": "string",
          "name": "_vehicleName",
          "type": "string"
        },
        {
          "internalType": "string",
          "name": "_aadhar",
          "type": "string"
        }
      ],
      "name": "setDriverInformation",
      "outputs": [],
      "stateMutability": "nonpayable",
      "type": "function"
    },
    {
      "inputs": [
        {
          "internalType": "string",
          "name": "_location",
          "type": "string"
        }
      ],
      "name": "setDriverLocation",
      "outputs": [],
      "stateMutability": "nonpayable",
      "type": "function"
    },
    {
      "inputs": [
        {
          "internalType": "string",
          "name": "_name",
          "type": "string"
        },
        {
          "internalType": "string",
          "name": "_phoneNumber",
          "type": "string"
        },
        {
          "internalType": "string",
          "name": "_aadhar",
          "type": "string"
        }
      ],
      "name": "setUserInformation",
      "outputs": [],
      "stateMutability": "nonpayable",
      "type": "function"
    }
  ],
  "bytecode": "0x608060405234801561001057600080fd5b50611c83806100206000396000f3fe608060405234801561001057600080fd5b50600436106100885760003560e01c8063923f94cd1161005b578063923f94cd146100e7578063d0927e93146100fa578063e0e6a6911461010d578063e232ee2e1461012457600080fd5b80630ca11da81461008d5780631066b78214610097578063536f4a04146100bd578063612b5d30146100d4575b600080fd5b610095610137565b005b61009f610296565b6040516100b499989796959493929190611ac3565b60405180910390f35b6100c5610847565b6040516100b493929190611a15565b61009f6100e236600461173e565b610b3a565b6100956100f536600461176e565b6110ed565b610095610108366004611833565b6111c2565b610115611353565b6040516100b493929190611a8a565b6100956101323660046117ab565b61155a565b336000908152600160205260408120600201805461015490611b9f565b9050111561018c5760408051602080820180845260008084523381526001909252929020905161018a9260029092019190611618565b505b60005b60025481101561029357336001600160a01b0316600282815481106101b6576101b6611c21565b6000918252602090912001546001600160a01b0316141561028157600280546101e190600190611b88565b815481106101f1576101f1611c21565b600091825260209091200154600280546001600160a01b03909216918390811061021d5761021d611c21565b9060005260206000200160006101000a8154816001600160a01b0302191690836001600160a01b03160217905550600280548061025c5761025c611c0b565b600082815260209020810160001990810180546001600160a01b031916905501905550565b8061028b81611bda565b91505061018f565b50565b6060806060806060806060806060600060016000336001600160a01b03166001600160a01b03168152602001908152602001600020604051806101200160405290816000820180546102e790611b9f565b80601f016020809104026020016040519081016040528092919081815260200182805461031390611b9f565b80156103605780601f1061033557610100808354040283529160200191610360565b820191906000526020600020905b81548152906001019060200180831161034357829003601f168201915b5050505050815260200160018201805461037990611b9f565b80601f01602080910402602001604051908101604052809291908181526020018280546103a590611b9f565b80156103f25780601f106103c7576101008083540402835291602001916103f2565b820191906000526020600020905b8154815290600101906020018083116103d557829003601f168201915b5050505050815260200160028201805461040b90611b9f565b80601f016020809104026020016040519081016040528092919081815260200182805461043790611b9f565b80156104845780601f1061045957610100808354040283529160200191610484565b820191906000526020600020905b81548152906001019060200180831161046757829003601f168201915b5050505050815260200160038201805461049d90611b9f565b80601f01602080910402602001604051908101604052809291908181526020018280546104c990611b9f565b80156105165780601f106104eb57610100808354040283529160200191610516565b820191906000526020600020905b8154815290600101906020018083116104f957829003601f168201915b5050505050815260200160048201805461052f90611b9f565b80601f016020809104026020016040519081016040528092919081815260200182805461055b90611b9f565b80156105a85780601f1061057d576101008083540402835291602001916105a8565b820191906000526020600020905b81548152906001019060200180831161058b57829003601f168201915b505050505081526020016005820180546105c190611b9f565b80601f01602080910402602001604051908101604052809291908181526020018280546105ed90611b9f565b801561063a5780601f1061060f5761010080835404028352916020019161063a565b820191906000526020600020905b81548152906001019060200180831161061d57829003601f168201915b5050505050815260200160068201805461065390611b9f565b80601f016020809104026020016040519081016040528092919081815260200182805461067f90611b9f565b80156106cc5780601f106106a1576101008083540402835291602001916106cc565b820191906000526020600020905b8154815290600101906020018083116106af57829003601f168201915b505050505081526020016007820180546106e590611b9f565b80601f016020809104026020016040519081016040528092919081815260200182805461071190611b9f565b801561075e5780601f106107335761010080835404028352916020019161075e565b820191906000526020600020905b81548152906001019060200180831161074157829003601f168201915b5050505050815260200160088201805461077790611b9f565b80601f01602080910402602001604051908101604052809291908181526020018280546107a390611b9f565b80156107f05780601f106107c5576101008083540402835291602001916107f0565b820191906000526020600020905b8154815290600101906020018083116107d357829003601f168201915b5050505050815250509050806000015181602001518260400151836060015184608001518560a001518660c001518760e0015188610100015199509950995099509950995099509950995050909192939495969798565b6060806060600060028054905067ffffffffffffffff81111561086c5761086c611c37565b60405190808252806020026020018201604052801561089f57816020015b606081526020019060019003908161088a5790505b5060025490915060009067ffffffffffffffff8111156108c1576108c1611c37565b6040519080825280602002602001820160405280156108f457816020015b60608152602001906001900390816108df5790505b50905060005b600254811015610acc5760006002828154811061091957610919611c21565b60009182526020808320909101546001600160a01b03168083526001909152604090912060020180549192509061094f90611b9f565b80601f016020809104026020016040519081016040528092919081815260200182805461097b90611b9f565b80156109c85780601f1061099d576101008083540402835291602001916109c8565b820191906000526020600020905b8154815290600101906020018083116109ab57829003601f168201915b50505050508483815181106109df576109df611c21565b602002602001018190525060016000826001600160a01b03166001600160a01b031681526020019081526020016000206003018054610a1d90611b9f565b80601f0160208091040260200160405190810160405280929190818152602001828054610a4990611b9f565b8015610a965780601f10610a6b57610100808354040283529160200191610a96565b820191906000526020600020905b815481529060010190602001808311610a7957829003601f168201915b5050505050838381518110610aad57610aad611c21565b6020026020010181905250508080610ac490611bda565b9150506108fa565b506002828282805480602002602001604051908101604052809291908181526020018280548015610b2657602002820191906000526020600020905b81546001600160a01b03168152600190910190602001808311610b08575b505050505092509450945094505050909192565b60608060608060608060608060606000600160008c6001600160a01b03166001600160a01b0316815260200190815260200160002060405180610120016040529081600082018054610b8b90611b9f565b80601f0160208091040260200160405190810160405280929190818152602001828054610bb790611b9f565b8015610c045780601f10610bd957610100808354040283529160200191610c04565b820191906000526020600020905b815481529060010190602001808311610be757829003601f168201915b50505050508152602001600182018054610c1d90611b9f565b80601f0160208091040260200160405190810160405280929190818152602001828054610c4990611b9f565b8015610c965780601f10610c6b57610100808354040283529160200191610c96565b820191906000526020600020905b815481529060010190602001808311610c7957829003601f168201915b50505050508152602001600282018054610caf90611b9f565b80601f0160208091040260200160405190810160405280929190818152602001828054610cdb90611b9f565b8015610d285780601f10610cfd57610100808354040283529160200191610d28565b820191906000526020600020905b815481529060010190602001808311610d0b57829003601f168201915b50505050508152602001600382018054610d4190611b9f565b80601f0160208091040260200160405190810160405280929190818152602001828054610d6d90611b9f565b8015610dba5780601f10610d8f57610100808354040283529160200191610dba565b820191906000526020600020905b815481529060010190602001808311610d9d57829003601f168201915b50505050508152602001600482018054610dd390611b9f565b80601f0160208091040260200160405190810160405280929190818152602001828054610dff90611b9f565b8015610e4c5780601f10610e2157610100808354040283529160200191610e4c565b820191906000526020600020905b815481529060010190602001808311610e2f57829003601f168201915b50505050508152602001600582018054610e6590611b9f565b80601f0160208091040260200160405190810160405280929190818152602001828054610e9190611b9f565b8015610ede5780601f10610eb357610100808354040283529160200191610ede565b820191906000526020600020905b815481529060010190602001808311610ec157829003601f168201915b50505050508152602001600682018054610ef790611b9f565b80601f0160208091040260200160405190810160405280929190818152602001828054610f2390611b9f565b8015610f705780601f10610f4557610100808354040283529160200191610f70565b820191906000526020600020905b815481529060010190602001808311610f5357829003601f168201915b50505050508152602001600782018054610f8990611b9f565b80601f0160208091040260200160405190810160405280929190818152602001828054610fb590611b9f565b80156110025780601f10610fd757610100808354040283529160200191611002565b820191906000526020600020905b815481529060010190602001808311610fe557829003601f168201915b5050505050815260200160088201805461101b90611b9f565b80601f016020809104026020016040519081016040528092919081815260200182805461104790611b9f565b80156110945780601f1061106957610100808354040283529160200191611094565b820191906000526020600020905b81548152906001019060200180831161107757829003601f168201915b5050505050815250509050806000015181602001518260400151836060015184608001518560a001518660c001518760e00151886101000151995099509950995099509950995099509950509193959799909294969850565b336000908152600160209081526040909120825161111392600290920191840190611618565b506000805b60025481101561117557336001600160a01b03166002828154811061113f5761113f611c21565b6000918252602090912001546001600160a01b031614156111635760019150611175565b8061116d81611bda565b915050611118565b50806111be57600280546001810182556000919091527f405787fa12a823e0f2b7631cc41b3ba8828b3321ca811111fa75cd3aa3bb5ace0180546001600160a01b031916331790555b5050565b6706f05b59d3b20000333110156112175760405162461bcd60e51b8152602060048201526014602482015273496e73756666696369656e742062616c616e636560601b60448201526064015b60405180910390fd5b3360009081526001602090815260409091208951611237928b0190611618565b50336000908152600160208181526040909220895161125e939190920191908a0190611618565b50336000908152600160209081526040909120875161128592600390920191890190611618565b5033600090815260016020908152604090912086516112ac92600490920191880190611618565b5033600090815260016020908152604090912085516112d392600590920191870190611618565b5033600090815260016020908152604090912084516112fa92600690920191860190611618565b50336000908152600160209081526040909120835161132192600790920191850190611618565b50336000908152600160209081526040909120825161134892600890920191840190611618565b505050505050505050565b60608060606000806000336001600160a01b03166001600160a01b0316815260200190815260200160002060405180606001604052908160008201805461139990611b9f565b80601f01602080910402602001604051908101604052809291908181526020018280546113c590611b9f565b80156114125780601f106113e757610100808354040283529160200191611412565b820191906000526020600020905b8154815290600101906020018083116113f557829003601f168201915b5050505050815260200160018201805461142b90611b9f565b80601f016020809104026020016040519081016040528092919081815260200182805461145790611b9f565b80156114a45780601f10611479576101008083540402835291602001916114a4565b820191906000526020600020905b81548152906001019060200180831161148757829003601f168201915b505050505081526020016002820180546114bd90611b9f565b80601f01602080910402602001604051908101604052809291908181526020018280546114e990611b9f565b80156115365780601f1061150b57610100808354040283529160200191611536565b820191906000526020600020905b81548152906001019060200180831161151957829003601f168201915b50505091909252505081516020830151604090930151909792965094509092505050565b6706f05b59d3b20000333110156115aa5760405162461bcd60e51b8152602060048201526014602482015273496e73756666696369656e742062616c616e636560601b604482015260640161120e565b3360009081526020818152604090912084516115c892860190611618565b503360009081526020818152604090912083516115ed92600190920191850190611618565b5033600090815260208181526040909120825161161292600290920191840190611618565b50505050565b82805461162490611b9f565b90600052602060002090601f016020900481019282611646576000855561168c565b82601f1061165f57805160ff191683800117855561168c565b8280016001018555821561168c579182015b8281111561168c578251825591602001919060010190611671565b5061169892915061169c565b5090565b5b80821115611698576000815560010161169d565b600082601f8301126116c257600080fd5b813567ffffffffffffffff808211156116dd576116dd611c37565b604051601f8301601f19908116603f0116810190828211818310171561170557611705611c37565b8160405283815286602085880101111561171e57600080fd5b836020870160208301376000602085830101528094505050505092915050565b60006020828403121561175057600080fd5b81356001600160a01b038116811461176757600080fd5b9392505050565b60006020828403121561178057600080fd5b813567ffffffffffffffff81111561179757600080fd5b6117a3848285016116b1565b949350505050565b6000806000606084860312156117c057600080fd5b833567ffffffffffffffff808211156117d857600080fd5b6117e4878388016116b1565b945060208601359150808211156117fa57600080fd5b611806878388016116b1565b9350604086013591508082111561181c57600080fd5b50611829868287016116b1565b9150509250925092565b600080600080600080600080610100898b03121561185057600080fd5b883567ffffffffffffffff8082111561186857600080fd5b6118748c838d016116b1565b995060208b013591508082111561188a57600080fd5b6118968c838d016116b1565b985060408b01359150808211156118ac57600080fd5b6118b88c838d016116b1565b975060608b01359150808211156118ce57600080fd5b6118da8c838d016116b1565b965060808b01359150808211156118f057600080fd5b6118fc8c838d016116b1565b955060a08b013591508082111561191257600080fd5b61191e8c838d016116b1565b945060c08b013591508082111561193457600080fd5b6119408c838d016116b1565b935060e08b013591508082111561195657600080fd5b506119638b828c016116b1565b9150509295985092959890939650565b600081518084526020808501808196508360051b8101915082860160005b858110156119bb5782840389526119a98483516119c8565b98850198935090840190600101611991565b5091979650505050505050565b6000815180845260005b818110156119ee576020818501810151868301820152016119d2565b81811115611a00576000602083870101525b50601f01601f19169290920160200192915050565b606080825284519082018190526000906020906080840190828801845b82811015611a575781516001600160a01b031684529284019290840190600101611a32565b50505083810382850152611a6b8187611973565b9150508281036040840152611a808185611973565b9695505050505050565b606081526000611a9d60608301866119c8565b8281036020840152611aaf81866119c8565b90508281036040840152611a8081856119c8565b6000610120808352611ad78184018d6119c8565b90508281036020840152611aeb818c6119c8565b90508281036040840152611aff818b6119c8565b90508281036060840152611b13818a6119c8565b90508281036080840152611b2781896119c8565b905082810360a0840152611b3b81886119c8565b905082810360c0840152611b4f81876119c8565b905082810360e0840152611b6381866119c8565b9050828103610100840152611b7881856119c8565b9c9b505050505050505050505050565b600082821015611b9a57611b9a611bf5565b500390565b600181811c90821680611bb357607f821691505b60208210811415611bd457634e487b7160e01b600052602260045260246000fd5b50919050565b6000600019821415611bee57611bee611bf5565b5060010190565b634e487b7160e01b600052601160045260246000fd5b634e487b7160e01b600052603160045260246000fd5b634e487b7160e01b600052603260045260246000fd5b634e487b7160e01b600052604160045260246000fdfea2646970667358221220b3ca633d5375c372988c79a16d1212050079b280b46815ef491ade413b2fcdf164736f6c63430008070033",
  "linkReferences": {},
  "deployedLinkReferences": {}
}